:020000040040BA
:1000000008C44320712643006F2643006F26430037
:100010006F2643006F2643006F2643000000000058
:1000200000000000000000000000000005FD42008C
:100030006F26430000000000A5FD42000DFE4200B7
:100040006F2643006F264300DD2C4300CDD64200CF
:100050006F2643006F2643006F2643006F26430040
:100060006F264300000000004D2243006122430040
:10007000752243006F2643006F2643006F2643001E
:10008000892243009D2243006F2643006F264300D0
:100090006F2643006F2643006F2643006F26430000
:1000A00009D742006F2643006F2643006F264300A6
:1000B0006F26430051FB42006F2643006F2643002A
:1000C0006F2643006F2643006F2643006F264300D0
:1000D0006F2643006F2643006F2643006F264300C0
:1000E00065FB42006F2643006F2643006F264300E6
:1000F0006F2643006F2643006F2643006F264300A0
:100100006F2643006F2643006F2643006F2643008F
:100110006F26430000000000000000000000000007
:100120006F2643006F2643006F2643006F2643006F
:100130006F2643006F2643006F2643006F2643005F
:100140006F2643006F2643006F2643006F2643004F
:100150006F2643006F2643006F2643006F2643003F
:100160006F2643006F26430010B5054C237833B942
:10017000044B13B10448AFF300800123237010BD7A
:10018000900A402000000000D40945000C4B43B108
:100190000C480D4910B5AFF300800C48036823B933
:1001A00010BD0A48036833B97047094B002BF7D0DC
:1001B000BDE810401847064B002BF5D0184700BF8C
:1001C00000000000D4094500940A4020D4094500ED
:1001D0000000000021B9436823F001034360704729
:1001E000436843F00103436070470162704730B4D5
:1001F00085688468A54203D085688468AC42FBD1D9
:1002000061B1C4F3015000EB8005C4F3034000EB7F
:10021000450014F4800F18BF0C30086042B1C4F3DD
:10022000023101EB8101C4F3032000EB41011160B5
:1002300043B1C4F3021202EB820204F00F0404EB98
:1002400042041C6030BC7047F0B4446814F0010FE5
:1002500005D00C2903D90C394FF4800700E00027A2
:100260001C4CA4FB0356F60806EB8605A3EB4503DE
:1002700043EA0613A4FB0265ED0843EA053305EBE8
:100280008505A2EB450543EA05233B43A4FB014258
:10029000D20843EA025302EB8202A1EB420143EA95
:1002A0000141836913F0040FFBD0036843F001039D
:1002B0000360836913F0010FFBD00123C3618160E8
:1002C000036823F001030360C06A00F00100F0BC82
:1002D000704700BFCDCCCCCC70B42A4DA5FB0346F3
:1002E000F608039C640544EA067406EB8606A3EB55
:1002F000460344EA0363A5FB0264E40843EA0453AB
:1003000004EB8404A2EB440243EA02421E4BA3FB2B
:1003100001439B0942EA03121C4BA3FB01435B0907
:10032000A5FB0364E40804EB8404A3EB44031A4331
:10033000A5FB0143DB0803EB8304A1EB440142EA84
:100340000122A5FB0315ED0805EB8505A3EB45058B
:1003500042EA0532836913F0040FFBD0036843F0CF
:1003600002030360836913F0010FFBD00123C36113
:10037000C260036823F002030360C06A00F0020059
:1003800070BC7047CDCCCCCCD34D62101F85EB51E7
:1003900080697047C1617047034B1B6843F4802339
:1003A0001943016000207047AC0A402041B9094A56
:1003B000136823F08073136002681343036070476F
:1003C000044A136843F080731360026813430360A8
:1003D000704700BFAC0A40200268034B1B681943FA
:1003E00011430160704700BFAC0A4020036823EA54
:1003F0000101024B1B68194301607047AC0A4020A1
:10040000826883689A4203D0826883689342FBD1F2
:1004100018467047C068704770B506460D460468B8
:1004200004F480344FF4803109480A4B98472DB9C1
:100430004FF0FF33736024B9002070BD013D75603B
:10044000F9E74FF480310248034B9847F4E700BFC7
:1004500030180E40ED034000D903400010B489016C
:100460004318022444504FF0FF319962196A5A60D0
:100470005DF8044B7047890105234350704700EB3A
:100480008111CA61704700EB81114A62704700EB2D
:100490008111086A7047F0B486B0022401940824E0
:1004A000029420240394802404940A9CE40B059471
:1004B000B0EB510F14D84C0CA04217D2012501AF5C
:1004C00057F82540B1FBF4F4260C84420AD3864247
:1004D0000DD90135052DF3D1002006B0F0BC7047D1
:1004E0000020FAE70020F8E70120F6E700252AB10E
:1004F00006A901EB850151F8141C1160002BF3D003
:100500001D600120E9E7000008B10069704710B5DF
:1005100082B0084B984710B1006902B010BD064B7D
:100520000093064B352206490220064CA0470020C6
:10053000F3E700BF91ED4100489943004498430020
:1005400018994300E1FF410008B14069704710B5B8
:1005500082B0084B984710B1406902B010BD064BFD
:100560000093064B462206490220064CA047002075
:10057000F3E700BF91ED410078994300589843009C
:1005800018994300E1FF410038B504460A4B9847EB
:1005900080B10546006918B100222621074B984713
:1005A0002C6124B1002225212046044B9847204687
:1005B000034B984738BD00BF9587400001084000B5
:1005C000094D400008B1C069704710B582B0084BB2
:1005D000984710B1C06902B010BD064B0093064B9E
:1005E000682206490220064CA0470020F3E700BF1E
:1005F00091ED4100DC984300709843001899430046
:10060000E1FF410008B1006A704710B582B0084BA5
:10061000984710B1006A02B010BD064B0093064B1C
:10062000792206490220064CA0470020F3E700BFCC
:1006300091ED4100A0984300889843001899430029
:10064000E1FF410008B5034608B1986808BD024BB8
:1006500098470346F9E700BF91ED4100A0B100685B
:10066000A8B1036923B9006898B10369002BFAD0D7
:1006700010B50C460023CB6003699847207E80F0BC
:10068000010000F0010010BD4B681868E8E7012088
:1006900070470120704700002DE9F8430646554B8E
:1006A000984720B1006883680BB1317A9847736826
:1006B0009B6853B19A7E52B1DC68314600204E4BA4
:1006C000984707460025A84619E00024F5E70024CE
:1006D000F3E76368F360236830469847337E13F08E
:1006E000010F40F08580013573689B68EBB19A7EFD
:1006F00095421CD205EB4504DB6803EB840414F13E
:10070000000918BF4FF00109012F18BF4FF0000971
:10071000B9F1000F0DD02368002BE4D0237A002B11
:10072000D7D0327A9A42DED1D3E74446E7E744464F
:10073000E5E7012F02D03846BDE8F88370684368CA
:10074000002BF8D0337A233B012B0FD84FF001094F
:10075000B9F1000FEFD073685B6873603046FFF744
:100760009BFF012814BF00270127E4E74FF48051C5
:10077000224B98470028DED0337A113B192BEAD858
:1007800001A252F823F000BF51074000510740007A
:1007900051074000510740005107400051074000F9
:1007A00051074000510740005107400051074000E9
:1007B00051074000570740005707400051074000CD
:1007C00057074000570740005107400051074000BD
:1007D00051074000510740005707400057074000AD
:1007E00051074000510740005707400051074000A3
:1007F0000027A0E7291040005D064000C5374000F3
:10080000C8B110B588B0019002908DF80C1000218D
:10081000049105929DF81C3061F300038DF81C30A3
:10082000064C2368069301A82060054B9847069B59
:10083000236008B010BD0120704700BFB00A4020FF
:100840009906400000687047007A70470069704759
:10085000C0687047084B1B683BB970471A7E42F06E
:1008600001021A765B69002BF7D05A688242F5D0F4
:100870001A689042F6D1F1E7B00A40202DE9F04124
:1008800084B004460F4616461D46234B9847A2687F
:10089000937E01339376D4F8088098F81A1001EB10
:1008A00041018900D8F80C001C4B9847C8F80C008F
:1008B000A268D3681BB3927E02EB420203EB820371
:1008C00043F80C7CA268937ED26803EB430302EBEF
:1008D000830303F8046CA268937ED26803EB43039E
:1008E00002EB830343F8085CA268937E03EB4303A7
:1008F0009B000C3BD068184404B0BDE8F081084B65
:100900000293084B0193084B0093084BA02208491F
:100910000320084CA047FEE7B93C40006D074200A9
:10092000649A4300749A4300989A4300AC99430038
:10093000349A4300E1FF4100037A013BDBB20F2B05
:1009400001D80069704710B582B0064B0093064B82
:1009500040F2091205490220054CA047002002B0D0
:1009600010BD00BF0C9A4300C0994300349A430065
:10097000E1FF4100037A132B0CD010B582B0094B74
:100980000093094B4FF4AA7208490220084CA04773
:1009900002B010BD0269B2F900309942B8BF1946E1
:1009A000118070470C9A4300D4994300349A430055
:1009B000E1FF4100037A2A2B01D10069704710B58D
:1009C00082B0064B0093064B4FF4AF7205490220EC
:1009D000054CA047002002B010BD00BF0C9A430098
:1009E000F0994300349A4300E1FF41002DE9F843B8
:1009F00005460020154B984710B304464FF00009F8
:100A0000C846134E114F07E0A146042808BFA04670
:100A10002046B847044640B12046B047236DAB425C
:100A2000F6D10228F0D1A04602E0B8F1000F02D0C2
:100A30004046BDE8F883B9F1000F01D0C846F7E79A
:100A40000020024B98478046F2E700BF25EF4100A7
:100A500035104000037E13F0010F7ED12DE9F04FD9
:100A600083B0934601918246C568012300934FF0FD
:100A70000008DFF8FC90394FEDB1B8F1000F08BF66
:100A8000A84629465046D847054640453ED0002D49
:100A9000F2D02868C84710F0800FEDD12C682CB335
:100AA0002F4E01212046B047C8B92046B84704461A
:100AB0000028F6D11AE09AF8183013F0080F02D186
:100AC000B8F1000F22D1009B03B35046019B984719
:100AD0000546B8F1000F3AD000230093D7E72CB1B8
:100AE000012120461E4B98470028C5D1DAF80C306A
:100AF000AB420BD093B11C6850461A4B9847024644
:100B00000F212046184B9847012802D003B0BDE8BA
:100B1000F08FDAF80C301868144B9847CAF80C506C
:100B20002C6850460F4B984702460E2120460E4B2C
:100B300098470128EAD1DAF80C3018680B4B98472F
:100B4000DAF81030002BE1D050469847DEE7002855
:100B5000DCD08046002300939BE770471588400057
:100B6000C5374000ED09400001084000094D400034
:100B7000DF37400008B51C210148024B984708BDEB
:100B8000BCA143203FFE4100014B1868704700BFE5
:100B9000B40A402008B5024A0249034B984708BDF1
:100BA0009DFF410089FF4100550A400008B5024AF7
:100BB0000249034B984708BDA5FF410093FF410040
:100BC000550A400038B50446037EC3F3C00543F020
:100BD0000803037613F0040F0CBF044B044B984733
:100BE000237E65F3C303237638BD00BF950B400019
:100BF000AD0B4000002847D0F0B585B007460C4645
:100C00000646224B9847014660B103689C4207D0D4
:100C10001F4D3046A847014620B10B68A342F8D1CA
:100C200005B0F0BD20461B4B984730B1A3689B68C8
:100C30001BB1DB681B689C4212D0A3689BB1A36800
:100C40009F603846144B9847054680B1046038468B
:100C50000E4B98478542E3D13846104B9847DFE763
:100C60000E4B9847E9E720460D4B9847E7E70D4BB9
:100C700002930D4B01930D4B00930D4B81220D49B7
:100C800003200D4CA047FEE7704700BF89FF4100DD
:100C90009DFF4100E33740009DFE4100C50B400031
:100CA000B93C4000649A4300CC9A4300989A4300B0
:100CB000B89A4300DC9A4300E1FF41002DE9F0417E
:100CC00005462E4B9847002855D08046C36813B17F
:100CD0001B689D4221D046464046294B9847044612
:100CE000002848D003689D4209D0264F214630464F
:100CF000B847044600283ED023689D42F6D12146DD
:100D00004046214B98472046204B9847AB68002B24
:100D100031D000229A60BDE8F081037E13F0010F0C
:100D200003D0037E6FF3000303764046144B9847CD
:100D3000D8F80C3083420DD04046154B9847D8F870
:100D40000C30002BC7D01B689D42C4D10023C8F8CB
:100D50000C30C0E740460F4B9847D8F80C3098420B
:100D6000EAD1046840460C4B984702460F212046C2
:100D70000A4B9847E3E7BDE8F08100BFE337400046
:100D800089FF41009DFF4100E9FE4100CD02420084
:100D9000C50B400093FF4100ED09400001084000F1
:100DA00018B1C3681BB11868704700207047002055
:100DB0007047000000B583B00191064B984730B1F1
:100DC00001AA0D21044B984703B05DF804FB0120F4
:100DD000FAE700BFA10D400001084000F8B170B56E
:100DE0000446037EC3F340038B4213D0037E61F3BA
:100DF000410303760A4B9847064658B1E3681D68DD
:100E00002046084B984702460E212846064B984735
:100E1000012800D070BD3046044B9847FAE7704770
:100E2000A10D4000ED09400001084000094D4000BF
:100E3000002853D02DE9F0410546294B98478046BC
:100E400018B1037E13F0010F01D0BDE8F08100213D
:100E5000244B984746464046234B98470446002873
:100E6000F3D003689D4209D0204F21463046B84751
:100E700004460028E9D023689D42F6D1D8F80C300A
:100E80008BB11E68B5420ED04046194B98470246BA
:100E90000F213046174B98470128D6D1D8F80C308F
:100EA0001868154B9847C8F80C40D8F810300BB1AB
:100EB00040469847D8F80C301C6840460C4B984781
:100EC00002460E2120460B4B98470128BDD1D8F889
:100ED0000C301868084B9847BDE8F081704700BF98
:100EE000E3374000DD0D400089FF41009DFF4100D8
:100EF000ED09400001084000094D400018B1007E96
:100F0000C0F34000704700207047000008B5014B57
:100F1000984708BDABFF4100437913F0020F19D089
:100F2000002343628362C362427943648364038320
:100F3000438390F8401063F3030180F840108383EB
:100F4000C3838387C38702F0FE0263F341024271C9
:100F5000014A1360704700BFBC0A4020407810F07F
:100F6000020002D00022034B1A60003018BF01209B
:100F7000704700BFBC0A402038B50446437813F0E0
:100F8000080F13D000230362436203644364427872
:100F900063F3C30242701F4A1360856A2DB1204675
:100FA0001D4B984720461D4B984738BD006A194B8A
:100FB0001860A56A0028F1D0194B1A680821194B4E
:100FC00098472046154B98470028EED125B10023BD
:100FD000236223646364E1E7637813F0010F0BD1AC
:100FE0000F4B1A6804210B4B18680E4B984720468C
:100FF0000A4B98470028D8D1094B1A680721054B9E
:101000001868084B98472046044B98470028DED0C4
:10101000CBE700BFBC0A4020BD2A40005D0F400066
:10102000B80A402001084000014B1868704700BF13
:10103000B80A402010B10368187870470020704744
:1010400000B30346427942F0020242712A4A126812
:10105000904206D01A681278013AD2B2012A04D915
:1010600070470020254A1060F4E7E1B11A6B914205
:1010700016D05A6A914218D09A6A9142F0D1002251
:101080009A62704770B50C4600201D4B9847034686
:1010900010B100261A4D18E00022184B1A6070BDDE
:1010A00000221A63E5E700221A6300225A6200292F
:1010B000E2D1E4E71E6317E01E635E62BCB99E6284
:1010C0001846A84703460028E6D05A7942F00202A3
:1010D0005A711A681278013AD2B2012AF0D8002C5B
:1010E000EAD01A6B9442E5D05A6A9442E5D09A6AE3
:1010F0009442E5D1E3E700BFB80A4020BC0A402093
:1011000025EF410038B5044643796FF3000343717E
:10111000024DA847A064A847606438BDD1EF4100E4
:1011200060B103681B7803F0FD03012B0AD1B0F90D
:1011300008300B80B0F90A304B80704700230B80D9
:101140004B8070474FF6FF730B804B80704750B158
:1011500003681B7803F0FD03012B06D190F84000D3
:1011600000F00F007047002070470020704738B132
:1011700003681B7803F0FD03012B03D1C06A70479D
:10118000002070470020704700230B804B8058B12F
:1011900003681B7803F0FD03012B05D1B0F914306F
:1011A0000B80B0F916304B80704718B1437943F08B
:1011B0000803437170470000014B1868704700BF77
:1011C000BC0A40202DE9F04106460F461F4B9847C8
:1011D000002835D030461E4B9847451E0ED46FF080
:1011E00040440444A400B3681B6839461859FFF70B
:1011F000E9FF034628BB043C013DF4D502213046FB
:10120000144B984700B36EB134464FF00108114DAE
:10121000114F41462046A84770B92046B8470446BA
:101220000028F6D130460D4B984700F0800000288A
:101230000CBF3346002304E0002CF3D0002300E071
:1012400000231846BDE8F0810023FAE779524000F8
:101250004D884000C537400015884000DF3740000A
:10126000036A884A1360427812F0080F40F03A820D
:101270002DE9F0410446844A126812681569002B72
:1012800064D0826A002A00F0D680A2882389D21A0C
:1012900012B22282E38861895B1A1BB26382B4F9BD
:1012A0001A10B4F91800521002EB600222835B108E
:1012B00003EB61036383A369E361724B1868002841
:1012C00000F0A480704B1A680221704B98472046AA
:1012D0006F4B9847002840F099806B4B1B685B79F7
:1012E00013F0080F40F0928020466A4B9847204642
:1012F000674B9847002840F08980A36A002B00F0D4
:1013000046812046624B984700287FD1A36A002B74
:101310007CD1637813F0010F00F0AB81606C5E4B01
:101320009847594B1A681368DB8B98426ED906218F
:10133000544B1868554B98472046554B9847002802
:1013400064D1564B98476064BDE8F0812846544B01
:101350009847261D3146534B98474A4B1860002842
:1013600056D0636A53B100232383638320464E4BD8
:1013700098472046464B9847002847D1206A414B62
:101380001B68984281D0A3882381E388638148B198
:101390003D4B1A6803213D4B984720463C4B9847EC
:1013A000002833D1374B1B6823626362002B3FF464
:1013B0006CAF3A4B9847206463786FF30003637017
:1013C0000023A382E38294F83C2002F0F00263F34E
:1013D000071284F83C2094F83D2063F3000284F85F
:1013E0003D202387638723826382274B1A6801216C
:1013F000244B1868254B98472046254B984728B919
:10140000214B1D686B7913F0080F55D0BDE8F081B2
:101410002846264B98473146224B9847194B18606F
:1014200000289ED12846224B984731461D4B9847AD
:10143000144B186095E74FF4006118461D4B984710
:1014400000289BD12846164B9847261D3146154B40
:1014500098470C4B1860002883D12846134B9847B7
:101460003146104B9847074B186000287FF479AF3E
:1014700028460F4B984731460A4B9847014B186056
:101480006FE700BFBC0A4020B80A402001084000B6
:101490005D0F400059254000EDEF4100D1EF4100C4
:1014A00005064000C5114000BD2A4000C5054000AA
:1014B00009054000C537400004218B4B18688B4B51
:1014C000984700282BD0884B18682B6B834226D076
:1014D0002F1D874B98470646286B002800F0EF80A9
:1014E000834B9847864221D0002800F0EB80286B80
:1014F00040B1804B1A6810217F4B984738467F4B8C
:10150000984760B9002E35D0774B18687C4B9847C8
:1015100038467A4B984710B9734B1B682B632046AB
:10152000764B984700283FF4B0AE6FE74EB16E4B54
:101530001868734B98473846704B98470028EBD093
:10154000EDE7286B48B16B4B1A680F216A4B98473F
:1015500038466A4B98470028E1D1664B1A680E213D
:10156000614B1868644B98473846644B984700288D
:10157000D2D0D4E75F4B1A680E215B4B18685E4BE4
:10158000984738465D4B98470028C5D0C7E794F880
:101590003D3013F0010F7FF4B4AE256A002D3FF407
:1015A000B0AE4FF40058514E564F41462846B04712
:1015B00028B12846B84705460028F6D1A1E6002DF7
:1015C0003FF49FAEB4F910304A4A12681168887E21
:1015D00083EAE371A1EBE371814209DAB4F91210F5
:1015E0000029B8BF4942884202DD00212187618776
:1015F000218F0B4419B22187638F608A03441BB289
:10160000638781EAE176A6EBE1761068C07E8642C8
:1016100006DC83EAE377A7EBE377B842BFF671AE67
:1016200094F83D0040F0010084F83D0083EAE37047
:10163000A0EBE370864211DD002994F83C30CCBF6A
:101640000221012161F3071384F83C300C21284664
:10165000294B98472046294B984752E6002B94F88F
:101660003C30CCBF0821042161F3071384F83C30DF
:10167000ECE7206C244B98471E4B1A6813689B8B31
:10168000984209D8A36A002B7FF4C0AE637813F0A8
:10169000010F3FF4BBAE41E60521134B1868164B12
:1016A00098472046154B984700287FF4AFAE6378E3
:1016B00043F001036370154B98476064E2E7002E26
:1016C0003FF44BAF286B00283FF41CAF094B1A685E
:1016D0000F21094B98473846084B984700283FF49C
:1016E00011AF1CE7704700BFBC0A4020C53740005F
:1016F000E3374000B80A4020010840005D0F400079
:10170000310E400015884000EDEF4100D1EF41005F
:101710002DE9F04F87B0C468AD4B1C6023681B698E
:10172000002B00F0C5842046AA4B9847637913F03C
:10173000040F40F0BD84A64DDFF8D082A54EE9E04D
:1017400023681C69A44B9847C4F85801F8E0BDF918
:101750001420002A70D19DF81630012B00F0E08291
:10176000637913F0080F08D063790022626403F0F4
:10177000F70362F300036371227294F808A09DF8E6
:1017800016302372039BE360D4F85090B9F1000F38
:1017900000F0BB804846914B9847914B1860002859
:1017A00000F0B3809DF8163013B10023ADF814306B
:1017B00048468A4B98478A4B1860002800F0A5805D
:1017C0009DF81620012A14BF00210121BAF1000F53
:1017D00002D1002940F0AA82BAF1010F14BF002300
:1017E000012311B1002B40F0F48212B9002B40F01C
:1017F000708300227A4B1A60BDF91430002B00F080
:1018000084804846774B9847002800F01584BDF93E
:101810001430002BC0F2FF83002B76DD00244FF044
:10182000130BDFF8ECA159464846D0470134BDF907
:1018300014309C42F7DB68E01C69674B9847C4F89A
:1018400058017DE01169BDF908202282BDF90A30F6
:101850006382086890F810E01EF0100F0AD0D2439F
:1018600000880244ADF808200A68DB43528813441C
:10187000ADF80A300B681B7C13F0080F0BD0BDF9D4
:101880000A30BDF80820ADF80A200A68DB43528808
:101890001344ADF80830BDF90830002BC0F28B803E
:1018A000BDF90890236818694F4B9847814580F22D
:1018B000B380BDF90A30002BC0F2BC80BDF90A909C
:1018C00023681869494B9847814580F2BF80E06CD6
:1018D00048B1E268029B9A4205D0BDF90A20BDF9E1
:1018E0000810434B9847BDF808302381BDF80A30F3
:1018F00063812379012B04F104000CBF3D4B3E4B67
:1019000098472389A3816389E3812868B047002F22
:1019100000F0C98302A92868C0479DF817702C6899
:101920002046B04700222E4B1A609DF816302371D6
:10193000012B3FF405AF23681A78042A3FF407AF60
:101940002C6822681378012B3FF47CAF022B00F047
:101950008B80042B3FF4FFAE032BD6D1636D002B9D
:1019600000F08A83049A03EB820133F922A0B1F9D3
:1019700002B09DF81630012B00F0888304F10409B1
:1019800048461E4B98470028BFD1A4F808A0A4F8E9
:101990000AB09DF81630012B48460CBF154B164B6C
:1019A00098474846154B98470028AED12389A38114
:1019B0006389E381A9E70193114B0093114B4FF425
:1019C000AE7211490220DFF84C90C84768E700BFAB
:1019D000B80A4020190F4000D1EF4100A10D40008E
:1019E000BC0A4020FD0E40009DED4100CDED4100C0
:1019F0000547400061124000790F40005D0F400034
:101A00009C9B43001C9B4300449B430049EF4100C7
:101A1000B50D4000E1FF4100BDF9083001939C4B3A
:101A200000939C4B4FF4AF729B490220DFF89C92CD
:101A3000C8473EE70193994B0093964B40F25F12E3
:101A400095490220DFF88492C84737E7BDF90A308C
:101A50000193934B00938F4B40F261128E49022009
:101A6000DFF86892C84732E79DF81630012B3ED068
:101A7000637913F0080F08D063790022626403F0E1
:101A8000F70362F3000363712272D4F85090B9F146
:101A9000000F3FF43AAF4846824B9847824B18609C
:101AA00000283FF432AFD4F80CC00399E160237AE8
:101AB0009DF8162022729DF81620012A14BF4FF0BF
:101AC000000E4FF0010E13B9BEF1000F14D1012B1F
:101AD00014BF0023012313B1BEF1000F54D112B97A
:101AE000002B40F0C98000226F4B1A600DE763792C
:101AF00013F0080FC9D008E76C4B9847606403994E
:101B00000A2909D01B2916D0092923D00B292ED048
:101B10004846674B9847E6E74846654B98472A682A
:101B20000121614B1868634B9847201D624B984711
:101B30000028D8D0E9E648465D4B98472A6820211E
:101B4000594B18685B4B9847201D5B4B9847002802
:101B5000C9D0DAE600214846584B98474846584BCA
:101B60009847201D544B98470028BCD0CDE6002153
:101B70004846524B98474846524B9847201D4E4B7B
:101B800098470028AFD0C0E60A291DD0637913F02A
:101B9000010F23D0A06C4C4B98472368DB8B9842F5
:101BA000A1D9424B9847A06403990A293BD009293F
:101BB00046D00B2952D048463D4B9847201D3E4BFE
:101BC000984700288FD0A0E62A680221394B984711
:101BD000201D394B98470028D8D096E6606C3A4BC8
:101BE000984723689B8B984217D9637943F0010388
:101BF0006371039B0A2B7FF476AF2C4B9847A0644C
:101C00002A680521284B18682A4B9847201D2A4B23
:101C1000984700283FF467AF77E6637913F0010F28
:101C20003FF461AFB6E72A6806211F4B1868214BC5
:101C30009847201D204B984700283FF454AF64E696
:101C4000002148461D4B984748461D4B9847201D8C
:101C5000194B984700283FF446AF56E60021484606
:101C6000164B98474846174B9847201D124B9847EC
:101C700000283FF438AF48E6CDF80CC0BCF10A0F9D
:101C800026D000226264637962F3000363712AE75D
:101C9000C09B43001C9B4300449B4300E89B4300C4
:101CA0000C9C4300A10D4000BC0A4020D1EF410034
:101CB000B50D4000010840005D0F4000DD0D400003
:101CC000950B4000AD0B4000EDEF4100E1FF4100FE
:101CD0002A680821904B984704F1040948468F4B25
:101CE000984700287FF411AE637913F0010F0BD1F0
:101CF0002A6804218A4B1868874B98474846874BC7
:101D0000984700287FF401AE2A680721844B1868A1
:101D1000814B98474846814B98470028B1D0F4E55D
:101D2000637913F0080F3FF428ADEEE57D4B98473B
:101D3000606403990A2909D014292ED0132932D0BE
:101D40001B2936D04846784B984752E5744B1868A3
:101D5000764B9847D0B14FF0010A4846744B9847EC
:101D600080F0010010F0FF0F03D01AF0010F7FF494
:101D700040AD2A6801216A4B1868674B9847201DBF
:101D8000664B984700283FF434ADBEE51021644B04
:101D90001868684B98478246DFE7BDF81430013B6E
:101DA000ADF8143025E5BDF814300133ADF814302A
:101DB0001FE548465C4B98472A682021584B186815
:101DC000554B9847201D554B984700283FF411ADBF
:101DD0009BE5637913F0010F17D0A06C564B984721
:101DE0002368DB8B98427FF604AD4E4B9847A06486
:101DF00003990A2950D014295BD013295FD1BDF86B
:101E000014300133ADF81430F3E4606C4A4B98475A
:101E100023689B8B984205D8637913F0010F3FF438
:101E2000E8ACDAE7637943F0010363713D4B98470F
:101E3000A064039B0A2B04D0637943F00103637110
:101E4000D7E4374B1868394B984728B91021344BE1
:101E50001868384B984798B14846384B984701283E
:101E6000EAD94846324B984780F00101C9B248464A
:101E7000334B984720212A4B1868324B9847DBE7B1
:101E80002A680521264B1868234B9847201D234BB1
:101E900098470028D0D038E52A680621204B1868DA
:101EA0001D4B9847201D1D4B984700283FF4A1ACBF
:101EB0002BE5BDF81430013BADF8143099E44846E9
:101EC000194B9847201D154B984700283FF491ACBB
:101ED0001BE5039B0A2B06D000226264637962F340
:101EE0000003637185E4114B984768B34846104B73
:101EF0009847002800F08580637913F0010F55D0D2
:101F000048460E4B9847012850D92021044B1868A9
:101F10000C4B9847E0E700BF010840005D0F400010
:101F2000BC0A4020D1EF4100B50D4000C33E400047
:101F3000FD0E4000C5374000EDEF41000D0F4000A1
:101F4000DD0D4000AD37400010215B4B18685B4B46
:101F500098470028CAD12A680821574B1868584B5F
:101F6000984704F1040A5046564B984700287FF4DE
:101F7000CCAC637913F0010F11D05046514B984708
:101F800000287FF4C2AC2A6807214B4B18684C4BE1
:101F9000984750464B4B984700289DD0B5E42A6897
:101FA0000421454B1868464B9847E6E72A68082104
:101FB000414B1868424B984704F1040A5046414B84
:101FC000984700287FF4A1AC2A6804213A4B18688E
:101FD0003B4B984750463B4B984700287FF495ACC5
:101FE0002A680721344B1868354B98475046354BC3
:101FF000984700287FF489AC0A214846324B98471D
:102000006AE7637913F0010F7FF466AF0121484658
:102010002E4B984760E7BFF678AC00244FF0140BC6
:10202000DFF8A4A059464846D0470134BDF9143022
:102030005B429C42F6DB68E4BDF91430002B0DDBFB
:10204000002B7FF762AC0024DFF89CA04846D04705
:102050000134BDF914309C42F8DB56E4BFF655ACB0
:102060000024DFF888A04846D0470134BDF9143079
:102070005B429C42F7DB48E4154B0093154B40F262
:10208000DF2215490220154CA0473EE4B4F90C307C
:10209000534503D0201D124B98476FE4B4F90E301E
:1020A0005B45F7D16AE400230E4A1360024A1360CD
:1020B00007B0BDE8F08F00BFBC0A4020C537400024
:1020C000010840005D0F4000B50D4000DD0D4000EF
:1020D000349C4300309B4300449B4300E1FF41009C
:1020E000790F4000B80A4020950B4000AD0B40002E
:1020F0002DE9F04F89B00646019103920293474BB8
:10210000984718B9002009B0BDE8F08F824641F623
:10211000100200213046424CA047049003B20793BE
:1021200041F6110200213046A047069003B2059304
:1021300030463C4B9847074600286BD000244FF4AC
:10214000C049DFF8E480DFF8E4B01FE0B5F91630ED
:10215000F28A04990A4412B202990B449BB219B252
:10216000019881420FDB039881420CDC9B1A1BB261
:1021700083EAE371A1EBE37189EAE972A2EBE97208
:102180009142B8BF99460134A7423CD0B3681B685E
:1021900053F824504FF001112846C0470028F2D1CF
:1021A0004FF480612846D8470028ECD0BAF1020FDE
:1021B00006D0BAF1030F0AD0BAF1010FE3D1C5E797
:1021C000B5F91A30728B0699521A12B2C4E7EA8A2C
:1021D0006B8B01339B1A1BB2002BB8BF013302EB90
:1021E00063031BB2F28A718B0131891A09B2079815
:1021F000091A0598091A48BF01310498024402EBF4
:10220000610212B2A8E7B9F5C04F05D0C9F10000CC
:1022100000B278E7002076E7002074E725624000EE
:10222000C97740004D884000D3374000C537400093
:102230002DE9F04F89B00646019103920293474B76
:10224000984718B9002009B0BDE8F08F824641F6E2
:10225000120200213046424CA047049003B207937B
:1022600041F6130200213046A047069003B20593C1
:1022700030463C4B9847074600286BD000244FF46B
:10228000C049DFF8E480DFF8E4B01FE0B5F91430AE
:10229000B28A04990A4412B202990B449BB219B251
:1022A000019881420FDB039881420CDC9B1A1BB220
:1022B00083EAE371A1EBE37189EAE972A2EBE972C7
:1022C0009142B8BF99460134A7423CD0B3681B681D
:1022D00053F824504FF001112846C0470028F2D18E
:1022E0004FF480612846D8470028ECD0BAF1020F9D
:1022F00006D0BAF1030F0AD0BAF1010FE3D1C5E756
:10230000B5F91830328B0699521A12B2C4E7AA8A6C
:102310002B8B01339B1A1BB2002BB8BF013302EB8E
:1023200063031BB2B28A318B0131891A09B2079853
:10233000091A0598091A48BF01310498024402EBB2
:10234000610212B2A8E7B9F5C04F05D0C9F100008B
:1023500000B278E7002076E7002074E715624000BD
:10236000C97740004D884000D3374000C537400052
:102370002DE9F84F05460C4617461E462021714BA5
:102380009847002800F0D2809DF82830032B1FD0FA
:1023900028466D4B984781466C4B9847824641F6DC
:1023A000100200212846DFF8ACB1D847804641F63C
:1023B000110200212846D847B9F1020F7ED0B9F1A9
:1023C000030F50D0B9F1010F72D00023184668E016
:1023D00028465F4B984781465C4B9847804641F6BC
:1023E000120200212846DFF86CB1D847824641F638
:1023F000130200212846D847B9F1020F2DD0B9F1B8
:10240000030F05D0B9F1010F21D00023184648E091
:10241000AA8A2B8B01339B1A1BB20FFA8AF15B1A23
:1024200000B21B1A48BF013302EB0A0000EB630342
:1024300018B2B8F81430B8F818200132D21A12B213
:10244000002AB8BF013203EB62031BB229E0A88A5D
:10245000504400B2B8F9143023E02B8B181A00B2A4
:10246000B8F918301DE0EA8A6B8B01339B1A1BB256
:102470000FFA88F15B1A00B21B1A48BF013302EB56
:10248000080000EB630318B2BAF81630BAF81A2045
:102490000132D21A12B2002AB8BF013203EB620332
:1024A0001BB2002E10DB002F27DB2046BDE8F88F83
:1024B000E88A404400B2BAF91630F2E76B8B181A7A
:1024C00000B2BAF91A30ECE7B9F1000F04D0984223
:1024D00002DA2046BDE8F88F002C0BDB002C01DD72
:1024E000A01C04B22046002CB8BFE01C40F38F00B3
:1024F000BDE8F88FA01E04B2F0E7B9F1000F04D0D8
:10250000984202DD2046BDE8F88F002C0BDB002C42
:1025100001DDA01C04B22046002CB8BFE01C40F333
:102520008F00BDE8F88FA01E04B2F0E7E64206D4A3
:10253000381B34EA200028BF3846BDE8F88F7042C7
:1025400004B2F5E7C537400025624000B9114000EC
:1025500015624000C97740002DE9F04F8BB004466A
:10256000876A002F55D02369002B4FD094F83C3058
:1025700003F00F03032B00F046823846734B984755
:1025800005463846724B9847B4F912100C23009355
:1025900003462A4638466F4DA847054638466E4BD7
:1025A0009847002610F0040F40F04882002D40F3B9
:1025B00045820025B4F91630B4F93220E918914269
:1025C00001DAD51A2DB2B4F93620E918914201DDAD
:1025D000D51A2DB2B4F91430B4F93020F118914263
:1025E00001DAD61A36B2B4F93420F118914201DD7D
:1025F000D61A36B200232A4631463846574FB847D6
:10260000A38A1E44A682E38A1D44E5820BB0BDE87E
:10261000F08F838A028A13448382C38A428A1344D6
:10262000C3824F4B984703681B7E06931BB20793E8
:10263000D4F82080B8F1000FE8D000230993DFF828
:1026400024B108974546BCE04FF480712846D8472E
:10265000002840D1089F002FD8D094F83C30099A28
:1026600062F3030384F83C30A7620023A382E38271
:10267000802138463B4B9847002840F027813A4953
:102680004FF4C04300930A4604F13000374DA84789
:10269000B4F9303013B94FF420432386B4F9343001
:1026A00013B94FF4C043A386B4F9323013B94FF4D1
:1026B00020436386B4F9363013B94FF4C043E38640
:1026C0000022092138462A4B9847637813F0020FFD
:1026D0003FF449AF9AE72846264B984705466DE0F8
:1026E000002685E027B1B4F91630079A93420DDA37
:1026F000002E00F0B080B4F91620069B5B429A428F
:1027000000F3A98008950C230993A4E008950C23F5
:102710000993A0E0B8F1000F04D0B4F91430079A7F
:1027200093420EDA059B002B00F09C80B4F9142034
:10273000069B5B429A4200F3958008950323099318
:1027400090E00895032309938CE000BF9D62400050
:10275000B16240007123400005624000FD65400009
:1027600029104000C537400000A0FFFF39F54100A7
:102770000108400015884000059B33B1B4F91420CE
:10278000069B5B429A4240F397802FB1B4F9163012
:10279000079A934280F293802EB1B4F91620069BDB
:1027A0005B429A427ADD4FF480712846D847002870
:1027B00000F08A802846B54B98470546002D00F06A
:1027C000818010212846D847824600283FF43CAF3C
:1027D000B4F91420002AB8BF5242B4F91630002BC5
:1027E000B8BF5B429A423FF77BAF06464FF0000A04
:1027F0002846A74B984700F00103002B14BFD04692
:102800004FF0000800F00203002B14BF53460023D2
:10281000059300F00403002B14BF3746002700F097
:102820000800002808BF002628469A4B9847814692
:102830002846994B984704902846984B9847039010
:102840002846974B9847B9F1000F3FF74BAF049BD1
:10285000002B3FF747AF039B002B3FF75BAF0028F0
:102860003FF758AFB9F1000FD8BF0027049B002BEA
:10287000D8BF0026039B002B40F30281002840F3C1
:10288000F280B8F1000F3FF477AFB4F91430079A33
:102890009342FFF671AFD146089F01E0D146089FF1
:1028A000B9F1000F14BF03220C2294F83C3062F3FC
:1028B000030384F83C30CEE6D146089FF0E7D146CA
:1028C000089FEDE7089FC6E6089FC4E63846754BAB
:1028D000984702282CD003283BD0012806D04FF47B
:1028E000204363864FF4C043E38611E0F98A013147
:1028F00000234FF4C04209B238466B4DA8476086AA
:10290000FA8A013A002312B268493846A847E0869D
:102910003846674B9847022848D0032857D00128EB
:1029200033D04FF4204323864FF4C043A386BBE645
:1029300000234FF4C042B7F91A1038465A4DA84741
:1029400060860023B7F91A2058493846A847E08620
:10295000DEE7FB8A7D8B0135ED1A2DB2002DB8BF65
:10296000013503EB65039DB2691C00234FF4C0429F
:1029700009B238464C4EB04760866A1E002312B238
:102980004A493846B047E086C2E700234FF4C042C8
:10299000B7F914103846474DA84720860023B7F9E9
:1029A000142042493846A847A08671E600234FF418
:1029B000C042B7F9181038463E4DA847208600237C
:1029C000B7F9182039493846A847A08660E6BB8A7F
:1029D0003D8B0135ED1A2DB2002DB8BF013503EB4B
:1029E00065039DB2691C00234FF4C04209B238460A
:1029F000304EB04720866A1E002312B22B4938465B
:102A0000B047A08644E63846254B984705463846E9
:102A1000224B9847B4F91010032300932B4602462B
:102A20003846254DA84706463846194B984710F0BA
:102A3000010F0DD1002E0BDD0026354610F0080FDA
:102A40007FF4B8ADC5F3C033002B18BF0025B1E546
:102A500010F0020F05D116F4004F02D000252E46CB
:102A6000A0E500259EE5B8F1000F3FF48EAEB4F965
:102A70001430079A9342FFF688AED146089F0FE7BD
:102A800000287FF782AE4FF00008FAE61588400074
:102A9000056240009D624000B16240009D634000BD
:102AA0009964400025624000F120400000A0FFFF33
:102AB0001562400031224000712340002DE9F047AB
:102AC00082B0866A26B190F83C3013F00F0F02D125
:102AD00002B0BDE8F0870446AC4B98470746036850
:102AE0005D7E40213046AA4B984710B9002363838E
:102AF00023833046A74B984780463046A64B9847DD
:102B0000824694F83C3003F00F030C2B1ED0032BAD
:102B100000F0A680A369002BDAD1BAF1000F40D0F3
:102B2000B8F1000F00F011813A460A2130469B4B64
:102B30009847637813F0020FCAD194F83C306FF3D2
:102B4000030384F83C300023A362C1E700232383FE
:102B500000283ED1B4F91A30C5F1640505FB03F530
:102B60008F4B83FB0523ED17C5EB6315658330465B
:102B70008C4B9847054630468B4B9847B4F91A1052
:102B80000C2300932B4602463046884DA847024648
:102B90006083002319463046854DA847A369002B62
:102BA00096D13046804B9847054630467D4B984736
:102BB000002D01DC0028B3DD002DC0F2BF8000280D
:102BC000AEDA4242012312B200213046784DA847C6
:102BD000A6E7B4F91A506D4B984703685A7E002D4A
:102BE0003CD04FF00009C2F164026D49A9440FFACC
:102BF00089F905FB02F581FB0503ED17C5EB6315AC
:102C00002DB2002DF2D100236383B4F91630B4F94C
:102C1000322009EB0301914202DAD21A0FFA82F94B
:102C2000B4F9362009EB0301914203DDA2EB03095D
:102C30000FFA89F94B464FF4C0425E4930465E4D6B
:102C4000A84709EB0002012312B200213046584D7B
:102C5000A847A369002B3FF463AF39E7A946D2E741
:102C600000236383B8F1000F24D1B4F91830C5F103
:102C7000640505FB03F54A4B83FB0523ED17C5EB04
:102C80006315258330464D4B9847054630464C4BDF
:102C90009847B4F918100323009303462A46304698
:102CA000424DA8470146208300231A463046404D36
:102CB000A8472FE7B4F91850344B984703685A7E59
:102CC000002D39D04FF00009C2F164023449A94403
:102CD0000FFA89F905FB02F581FB0503ED17C5EB3A
:102CE00063152DB2002DF2D100232383B4F91430E3
:102CF000B4F9302009EB0301914203DAA2EB030996
:102D00000FFA89F9B4F9342009EB0301914203DD8C
:102D1000A2EB03090FFA89F94B464FF4C04225494B
:102D20003046284DA84700EB09010123002209B2D3
:102D300030461F4DA847EDE6A946D5E701232A46B0
:102D4000002130461A4DA847EAE630461B4B98470B
:102D5000054630461A4B9847002D02DC00287FF7C5
:102D6000E3AE002D0ADB0028BFF6DEAE41420123B0
:102D7000002209B230460E4DA847D5E601230022B5
:102D8000294630460A4DA847CEE600BF291040002C
:102D9000C537400015624000256240000108400030
:102DA0001F85EB51B16240009D62400071234000DD
:102DB000FD65400000A0FFFFF12040009D63400042
:102DC0009964400031224000F0B10246032918D036
:102DD0000C291BD1B0F922301268517EC3B110B555
:102DE0000020C1F164010B4C184400B203FB01F355
:102DF00084FB03E2DB17C3EB62131BB2002BF3D19E
:102E000010BDB0F92030E7E7002070470020704780
:102E1000184670471F85EB512DE9F047A4B00646D0
:102E2000744B984705463046734B98470446122D1D
:102E300007D0152D67D0182D00F0F88024B0BDE81C
:102E4000F08730466D4B984705460378022BF5D046
:102E50006122002120466A4B984710B102232B7053
:102E6000ECE7602200212046654EB04707B240F6ED
:102E70000A0200212046B047804640F60B0200219E
:102E80002046B047B4F91620B4F918C0B4F91AE0D6
:102E90001FFA88F3A18AC91AADF848106344ADF847
:102EA0004C3080B2121AADF84A207044ADF84E0092
:102EB0003A4612A96868534B984710B901232B7002
:102EC000BCE72122002120464D4B9847C0B2FC2888
:102ED00002D801232B70B1E7682200212046484B1D
:102EE0009847C0B210B101232B70A7E740F26242AD
:102EF00000212046424B9847C0B2FC2894BF0123D2
:102F000000232B709AE730463C4B9847804605A833
:102F10003D4B9847342200212046394B984728B131
:102F20009DF8333043F001038DF8333005AF3A4656
:102F300000212046354B984740F60A0200212046E2
:102F40002F4EB047054640F60B0200212046B04701
:102F5000B4F91620B4F918C0B4F91AE0ABB2A18ADA
:102F6000C91AADF80C106344ADF8103080B2121AD3
:102F7000ADF80E207044ADF81200414612A8244B63
:102F80009847244B13930025149516970DF10C0ABE
:102F9000CDF854A01F9512AA1A212046DFF8889078
:102FA000C8473A46414650461B4B984712AA1B2138
:102FB0002046C847612229462046B04700283FF4F2
:102FC0003DAF602229462046B04705B2002D3FF4B0
:102FD00035AF1820114B9847064600232A4604F1C6
:102FE00014010F4DA84704F5907130460D4B9847DA
:102FF00024E700BF49084000450840004D08400054
:10300000C977400001F84100D5F94000C53F4000B4
:1030100001464000CC9C430095014100D907420085
:1030200035F3400089EE4000010840003046A84BCF
:103030009847054603AA01A92046A64B984701A830
:10304000A54B984720B903A8A34B984700286CD0FC
:1030500005A8A24B984721224FF480312046A04B6F
:103060009847C0B28DF81E00022800F2BD803122C0
:103070004FF4803120469A4B9847C0B28DF8320009
:10308000022800F2BA8040F645024FF48031204613
:10309000934B9847C0B28DF84600022800F2C680D4
:1030A00040F262424FF4803120468D4B9847C3B2C4
:1030B000FC2B10D818469DF81E3000FB03F31B12A2
:1030C0008DF81E30DBB200FB03F0C0F307238DF850
:1030D00032308DF846309DF81E302BB99DF83230D5
:1030E00013B99DF8463003B360224FF48031204677
:1030F0007B4B9847ADF81400294612A8794B9847A6
:10310000794B13930223149305AB16934FF480333A
:103110001F9301A8704B9847002840F0A88003A88F
:103120006D4B9847002840F0B38061220021204673
:103130006B4B9847002840F0BC8034220021204689
:10314000674B984700283FF479AE0DF114084046CC
:10315000624B984700268DF81E608DF83A608DF816
:103160004660424631462046604B984740F60A0288
:10317000314620465A4FB847814640F60B02314649
:103180002046B847B4F91620B4F918C0B4F91AE0CB
:103190001FFA89F3A18AC91AADF80C106344ADF87F
:1031A000103080B2121AADF80E207044ADF8120043
:1031B000294612A84B4B98474B4B1393012314936A
:1031C000CDF8588003AF15971F9612AA1A212046F2
:1031D000474EB047424629463846464B984712AAC2
:1031E0001B212046B04729E620224FF4803120469B
:1031F0003B4B9847ADF8180039E741F232024FF4E3
:1032000080312046364B984700B2ADF83000002898
:1032100008DD30224FF480312046314B9847ADF81D
:103220002E0030E700238DF832302CE74FF4046293
:103230004FF4803120462A4B984700B2ADF83E004B
:10324000002810DD40F643024FF480312046244E22
:10325000B047ADF8440044224FF480312046B047D7
:10326000ADF83C001CE700238DF8463018E701AFAD
:10327000159712AA1A2120461D4EB04705AA2946C5
:1032800038461C4B984712AA1B212046B04746E7F8
:1032900003AF159712AA1A212046154EB04705AA6A
:1032A00029463846134B984712AA1B212046B0479F
:1032B0003BE704F59070104B9847064600283FF412
:1032C0003CAF0E4B984730460D4B984735E700BF53
:1032D0004D0840000D6C40005BF54100D5F9400001
:1032E000C977400001464000CC9C4300C53F4000E8
:1032F000010840009501410059EF400095EF400062
:10330000F10242002DE9F8434F6847B30E463846B4
:10331000154B984780463846144B98470446FD8A1B
:1033200041F6100200213846DFF84490C84728448F
:10333000001B80B2F08201387083BC8A41F6120211
:1033400000213846C8472044A0EB080080B2B08274
:103350000138308342F67653F361BDE8F88340F2DA
:103360007643CB61BDE8F8839D6340009D624000D9
:10337000C97740002DE9F04F8DB0038C0B938B4241
:1033800008D0079104900A4601841946834B984758
:103390000A9010B90DB0BDE8F08F4FF42070804B4B
:1033A000984709904FF420717E4B9847049B5B8CA3
:1033B00013F4FC7F00F0D080002305939A46DFF8D9
:1033C0000092DFF8E4B122E01A68138883B1672B1A
:1033D00004D032F8083F5BB1672BFAD1D2F80480F1
:1033E0004FE000234BE09A88C2F30E02672A52D0C6
:1033F000059B01331A460593049B5B8CC3F3C503FD
:10340000934240F29280BAF11F0F00F28E80059B2A
:10341000DC00049FFD682B191E460893586820F0B5
:103420007F40C84780460690FB682344586820F0D8
:103430007F40D84703904346079A9343D8D1F37906
:1034400013F0020FD4D12B5993F90520002ABBDBCE
:10345000DC79002CCCD0012CC5D918682146A200FB
:10346000002CC5D0024430F82430672BB9D000239B
:1034700001339942BCD032F8024F672CF8D150F892
:103480002380D8F800301B88002BB1D0BAF11F0F71
:10349000AED8002743E0D3F80080F2E701351434BA
:1034A000554514D066683046C84702903046D84724
:1034B000D8F800302289DB5B9A42EFD1039B83422C
:1034C000ECD1069B029A9342E8D8AA451CD10AEB9C
:1034D0008A02099800EB8203D8F80C1020F8221019
:1034E000D8F810205A80D8F80820DA60D8F80020E0
:1034F000D25B1A81D8F804201A61089A5268C2F384
:1035000017025A600AF1010A0237D8F80030DB5B73
:10351000002B3FF46DAFBAF11F0F3FF669AFBAF160
:10352000000FD4D0099C0025BCE7BAF1000F13D0DE
:10353000099C00251C4F1D4EDDF82C80DDF81C90E9
:103540006068B84700944B46424601460498B0472D
:1035500001351434AA45F3D10998154B98470A9BB5
:10356000012B0ED00A9B032B0FD00A9B022B7FF45A
:1035700011AF049C20460F4B984720460E4B9847AE
:1035800008E704980B4B984704E74FF6FF724FF497
:1035900070210498094B9847FCE600BFF183400076
:1035A000D90742001D094200518640004582400073
:1035B000F1024200094D400025464000AD7940002F
:1035C0004D86400010B582B0154B1B78F3B9154BF2
:1035D0009847154B9847154B9847154B9847154BEF
:1035E0009847154B98474FF4AE711448144CA047B8
:1035F00058211448A047144B9847144B9847144B34
:1036000098470122064B1A7002B010BD114B00936F
:10361000114B642211490220114CA047F4E700BF6E
:10362000C00A4020AD024200A924420045FC4100EE
:1036300031F24100750B4000A9774000CCA0432037
:103640003FFE4100B4A04320419440009934410022
:10365000754E41009C9C4300489C43006C9C430079
:10366000E1FF410010B501460348044B984704466A
:10367000034B9847204610BDCC9C4300653D40005D
:10368000253F4000F0B585B004460D46184B9847DD
:10369000064615F0010F11D1E3692B43E361204683
:1036A000134B9847864212D02046124B9847124B34
:1036B000984715F0100F0ED105B0F0BD20460F4F02
:1036C000B847E3692B43E3612046B847E7E715F0C5
:1036D000C07FEED0E8E702AA69462046084B98472B
:1036E00069462046074DA84702A92046A847E3E7B8
:1036F000AD47400015884000F1474000094D4000AB
:103700000D6C4000C54C4000F0B585B004460D4638
:103710001B4B9847064615F0100F12D1E36923EAB8
:103720000503E36115F0010F18D12046144B9847AB
:10373000864221D02046134B9847134B984705B03B
:10374000F0BD02AA69462046104B984769462046BC
:103750000F4FB84702A92046B847DFE720460D4B78
:1037600098472046064B98470028DED02046054B58
:103770009847054B9847D8E715F0C07FDAD1DEE7C8
:10378000AD47400015884000F14740000D6C4000F7
:10379000C54C4000094D400008B5038C19438B42CD
:1037A00001D0014B984708BD7533400008B5038C24
:1037B00023EA01018B4201D0014B984708BD00BFAD
:1037C00075334000C36931EA03030CBF01200020B8
:1037D0007047C369194214BF012000207047008C54
:1037E000704783680BB198687047002070470000ED
:1037F0002DE9F04184B00E460846A64B9847044692
:103800003046A54B98470546012C29D0082C2BD0D3
:10381000032C49D0282C4BD00D2C59D00E2C00F065
:103820001881092C00F07A810A2C00F07B810F2C82
:1038300000F08E81272C00F08F81222C00F0B081C7
:10384000132C00F0D381182C17D84FF0927323FA61
:1038500004F414F0010F10D03046904B98470CE060
:1038600020218F4B984708E020218E4B9847304607
:103870008D4B98478D4B984710B104B0BDE8F0814F
:10388000EB6913F0080FF8D02B8C13F0010F4FF0F9
:10389000010128460CBF824B824B984700221C2115
:1038A0002846834B9847E8E720217E4B9847E4E77A
:1038B000804B984706460028DFD000247E4FAB6837
:1038C0001B6853F82400B8470134A642F7D1D4E767
:1038D000C36913F0080F39D113F0100FCDD0774B17
:1038E00098470028C9D12846754B9847074628466F
:1038F000744B9847044630466B4B98470378122B1D
:1039000042D0112B53D0132B64D0142BB5D12846A1
:103910006D4B984710F0030F05D0002F00F38880FF
:10392000002C00F385802846684B984704462846BB
:10393000674B984701460028B8BFC11CA4EBA10102
:10394000002209B22846634B984796E73046564B0B
:103950009847047804F0FD03112B0BD0142C0ED0E3
:10396000122C0CD00A2C88D000221C212846504B47
:10397000984782E701212846494B9847F2E7012101
:103980002846484B9847EDE72846504B9847044651
:1039900028464F4B984701460028B8BFC11C04EB8E
:1039A000A101002209B228464A4B984765E72846FC
:1039B000464B984704462846454B98470146002801
:1039C000B8BFC11CA4EBA101002209B22846414B9B
:1039D000984752E728463C4B984710F0030F03D016
:1039E000002F14DC002C12DC2846384B9847044684
:1039F0002846374B984701460028B8BFC11C04EB46
:103A0000A101002209B22846324B984735E72846E3
:103A1000314B984704462846304B9847042390FB87
:103A2000F3F31919002209B228462D4B984724E7D1
:103A30002846294B984704462846284B9847042394
:103A400090FBF3F3E11A002209B22846244B984771
:103A500013E7C36913F4007F12D12846214B98471E
:103A6000214B98470446214B9847034660B11846BE
:103A70001F4B9847022841D004283FD002213EE046
:103A800001211C4B9847E8E730461B4B98470346FB
:103A9000EDE700BF4908400045084000192E4000EE
:103AA00099374000AD3740004D0840006F1140008D
:103AB000010840004D884000F1474000C33E4000EF
:103AC0009D634000996440000562400069624000C7
:103AD000BD494000356B400035624000B1494000AF
:103AE000956A4000E3374000FD0E40002910400079
:103AF00035104000B96B40003909400006212CB157
:103B000041F008012846414B9847B6E628463F4B0E
:103B10009847082128463E4B9847AEE640213B4B4C
:103B20009847AAE640213A4B98472846394B984790
:103B300002287FF4A2AE02AA69462846364B98476F
:103B400069462846354CA04702A92846A04794E676
:103B50000E212F4B984790E641F209020021304C8C
:103B6000A047C6B241F2690200212846A04780B2B0
:103B700090B98EB928462B4B9847064600283FF44B
:103B80007CAE0024284FAB681B6853F82400B8476C
:103B90000134A642F7D170E62846234B9847E9E75F
:103BA00041F2010200211E4CA04707B241F204027B
:103BB00000212846A0470FFA80F841F209020021AF
:103BC0002846A047C6B241F2690200212846A04714
:103BD00080B238B936B942F2D1739F4202D09845CB
:103BE0007FF44BAE2846104B984746E630460F4BC5
:103BF00098470446002128460D4B9847B4F90030F9
:103C00009842B8BF1846208037E600BF9937400079
:103C1000AD374000F56140000D6C4000C54C4000E0
:103C2000C97740004D884000F14740004D084000F2
:103C30000D45400038B50C460846174B9847002004
:103C4000164DA847164A00212046164B98470120DA
:103C5000A84700212046144B98472046134B98470D
:103C600010B12046124B9847A3689BB1186820B149
:103C7000104B9847A36800221A60A368D86820B147
:103C80000C4B9847A3680022DA60A068094B98475C
:103C90000023A36038BD00BF55084000BD77400039
:103CA000FFFF0F00717B4000A9F24100E3374000A5
:103CB000BD0C4000CD024200836803B1704710B5CF
:103CC00084B00446124A1368013313601C20114B60
:103CD0009847A06070B11C210F4B9847A268537E93
:103CE00043F00F035376A268137E43F00303137669
:103CF00004B010BD094B0293094B0193094B00938B
:103D0000094B4FF4AE7209490320094CA047FEE766
:103D1000C40A4020E50642001D094200649A43009F
:103D2000B49C4300989A4300509C43006C9C430011
:103D3000E1FF410028B10068884214BF0020012043
:103D400070470020704738B5044605682B6813B1EA
:103D50000360FFF7F8FF25606B6813B12146284622
:103D6000984738BDF0B583B00C460746002837D0D9
:103D70008269404B1340002B7AD103463D491B68B2
:103D8000002B2FD09A691142F9D09E69C6F30F1605
:103D90003046394B98470546002867D03146374BA7
:103DA00098472F606C60FCB1A368002B4FD0A668C9
:103DB0003368002B4FD0736801337360A668716855
:103DC000890030682E4B98473060A26851686FF0C8
:103DD00040430B44126842F82350284603B0F0BD1C
:103DE0000026D5E70026D3E7264B98470446E0B1E6
:103DF000C06820B3616A013161628900204B984735
:103E0000E060626A6FF04043134440F8235000249E
:103E1000AC82EC8220461C4B984701382883204610
:103E20001A4B984701386883D7E7194B0093194B11
:103E30003A2219490220194CA0470025CDE7042059
:103E40000D4B9847E060056001236362DFE7204681
:103E5000134B9847ABE70420074B98473060A368A3
:103E60001B681D60A36801225A60B6E70025B4E70D
:103E700003468AE7F0FF0F00E50642001D094200F5
:103E80006D07420091ED41009DED4100CDED4100F7
:103E9000349D4300E89C4300009D4300E1FF410046
:103EA000B93C400010B50446006883680BB1214658
:103EB000984723681B681BB123602046FFF7F2FF79
:103EC00010BD03688BB11A7E12F0030F05D11B6879
:103ED0006BB11A7E12F0030FF9D0187E00F00300C8
:103EE000012814BF002001207047002070470020E7
:103EF000704703688BB11A7E12F00C0F05D11B6856
:103F00006BB11A7E12F00C0FF9D0187E00F00C0085
:103F1000042814BF002001207047002070470020B3
:103F20007047000070B504461A4B984700201A4DA0
:103F3000A8472046194B98472046194B984701201F
:103F4000A8474FF6FF724FF470212046154B984753
:103F50002046154B9847154B984720B105462046FB
:103F6000134B984780B92046124B9847054650B1ED
:103F700022462221104EB047224623212846B04730
:103F800020460E4B984770BD214628460C4B98475B
:103F9000E9E700BFF1474000BD774000419A40008B
:103FA000473D4000AD7940000D4B4000890B40007B
:103FB000F33E40001588400001084000094D4000D4
:103FC000F50B40002DE9F84306460D4614466022E5
:103FD000A94B98472080002D61D14FF0FF0840F297
:103FE000624229463046A44B9847C7B2022F5FD998
:103FF000B8F1020F5CD96822294630469E4B98479B
:10400000A070A37A002B5CD141F2320229463046DF
:10401000994B984700B2A08310B1A37F002B7ED1AB
:1040200040F63A0229463046934B984700B26084E6
:1040300020B194F82630002B40F08D80A37D002B1A
:1040400040F0A48094F83230002B40F0DD80B8F1CD
:10405000FC0F03D808FB07F7C7F30727FC2F1CD872
:10406000BFB2A37A13FB07F3C3F30723A372A37FA3
:1040700013FB07F3C3F30723A37794F8323013FB42
:1040800007F3C3F3072384F8323094F8263013FB88
:1040900007F7C7F3072784F82670BDE8F88340F2D6
:1040A000624229463046744B98475FFA80F896E79B
:1040B0000023A372A37784F8323084F82630BDE859
:1040C000F8832122294630466B4B9847C0B2A07234
:1040D000022899D944F2200229463046DFF8989107
:1040E000C847A080232229463046C847C0B2E37A99
:1040F00060F30203E37213F0070F85D044F222024B
:1041000029463046C847E080242229463046C84721
:104110002072252229463046C847607274E7312252
:1041200029463046544B9847C0B2A07702287FF604
:1041300077AF332229463046DFF83C91C847C0B2FA
:10414000E37F60F34503E37744F2300229463046CB
:10415000C847608364E740F63C0229463046464B38
:104160009847C0B284F8260002287FF667AF40F671
:104170003D0229463046DFF80091C847A08444F24A
:104180003B0229463046C847208457E740F62602BE
:1041900029463046384B9847E06000283FF452AF3C
:1041A000272229463046344B9847C0B2A0750228D2
:1041B0007FF648AFE068314B9847022815D044F2AB
:1041C000280229463046DFF8B090C847A08229224D
:1041D00029463046C847E0752A2229463046C84756
:1041E000003018BF012020762CE741F259422946C1
:1041F0003046DFF88490C847206144F25742294690
:104200003046C847A0821DE74FF404622946304675
:10421000194B984700B2608500283FF418AF94F816
:104220003230022B7FF613AF40F645022946304666
:10423000114B9847C0B284F8320002287FF607AFCE
:1042400040F6410229463046DFF82C90C847A08549
:1042500040F6420229463046C847E08540F6430210
:1042600029463046C847208644F244022946304653
:10427000C8472085EBE600BFC977400031CE40003B
:10428000F8B505460E4614464FF48B62254B984709
:10429000C0B2A076022800D8F8BD40F26242314692
:1042A0002846204B9847C0B2FC2804D8A37E03FBC5
:1042B00000F0000AA076A37E022BEDD944F257420B
:1042C00031462846174FB847A08141F25A4231463D
:1042D0002846B847A08241F25B4231462846B8479B
:1042E000608240F25C4231462846B847C0B2A37FA4
:1042F00060F30203A377682231462846B847C0B26C
:10430000A37F60F3C503A37741F2594231462846A3
:10431000B847206041F25D4231462846B8472077D1
:10432000BAE700BFC977400070B505460E4614468F
:104330004622264B9847C0B2E072022800D870BDD2
:1043400040F2624231462846204B9847C0B2FC28D2
:1043500004D8E37A03FB00F0000AE072E37A022B50
:10436000EDD9002323804FF4807363802B8B0133BE
:10437000AA8A9B1A1BB2002BB8BF01335B10A38023
:104380006B8B0133EA8A9B1A1BB2002BB8BF013337
:104390005B10E3804822314628460C4B9847C0B258
:1043A000A07250B9682231462846084B9847C0B2DF
:1043B000237B60F303032373C1E744F247023146D2
:1043C0002846024B98472081ECE700BFC9774000A0
:1043D000F8B505460E46144640F64902254B984767
:1043E00000B2608000B9F8BD4E2231462846214B0C
:1043F0009847C0B220720228F5D940F26242314695
:1044000028461C4B9847C0B2FC2804D8237A03FBEB
:1044100000F0000A2072237A022BE4D944F24D0204
:1044200031462846134FB84720804A223146284655
:10443000B84700B2A080B8B94C22314628460D4F8B
:10444000B847003018BF0120637A60F3820360F33D
:10445000C3036372682231462846B847C0B2637A04
:1044600060F301036372BEE74B2231462846B8472A
:10447000E080E1E7C9774000F8B505460E461446EE
:104480004FF40562204B984700B2608000B9F8BD38
:104490005322314628461C4B9847C0B2207202284E
:1044A000F5D940F2624231462846174B9847C0B2D0
:1044B000FC2804D8237A03FB00F0000A2072237A38
:1044C000022BE4D944F25202314628460E4FB84737
:1044D0002080542231462846B84760605122314638
:1044E0002846B847003018BF0120637A60F3820382
:1044F0006372682231462846B847C0B2637A60F3D7
:1045000001036372C3E700BFC97740002DE9F041A2
:1045100005460E464FF40462384B984704B204BB7C
:1045200040F63A0231462846344B984707B2002FEE
:104530004ED140F60A0231462846304FB8470FFAAE
:1045400080F840F60B0231462846B84700B2404595
:10455000B8BF4046002801DD204404B22046BDE833
:10456000F08140F6450231462846244B9847C0B2B8
:10457000022801D80024D3E740F6430231462846FA
:104580001E4B98472346002CB8BF631C441C04EB09
:104590006304A4B240F6410231462846DFF85C804D
:1045A000C04707B240F6420231462846C04700B233
:1045B00080EAE073A3EBE07387EAE770A0EBE770B3
:1045C0008342ACBFE418241820B220EAE074A7E7C5
:1045D00040F63C0231462846084B9847C0B20228B4
:1045E000A7D940F63D0231462846044B984707FAC2
:1045F00080F0A042B8BF204604B29AE7C9774000D5
:1046000038B504460D464821014B9847256038BD12
:104610001D094200836813B1B3F9160070470020EA
:104620007047000030B583B00446164B98470546E6
:1046300002AA002322F8023D13212046124B98477C
:10464000BDF90630AB4202D02046104B9847A36814
:104650005BB1BDF80620DA82BDF90630AB4202D06C
:1046600020460A4B984703B030BDBDF90630002BF9
:10467000F2D02046064B9847A368BDF80620DA82A0
:10468000EAE700BF1546400001084000094D400020
:10469000B93C400070B582B006460D46002301AA21
:1046A00041F20701074CA047012807D020B900229A
:1046B00029463046044B984702B070BD019BAB427F
:1046C000F5D1F9E7B9814000BD86400070B582B0F0
:1046D00006460D46002301AA41F20801074CA047F7
:1046E000012807D020B9002229463046044B9847BC
:1046F00002B070BD019BAB42F5D1F9E7B981400032
:10470000D186400038B504461546034B98472946E4
:104710002046024B984738BD95464000CD464000A4
:1047200070B582B006460D46002301AA41F2010190
:10473000074CA047012807D020B90022294630465F
:10474000044B984702B070BD019BAB42F5D1F9E72D
:10475000B98140008186400070B582B006460D46A2
:10476000002301AA41F20401074CA047012807D009
:1047700020B9002229463046044B984702B070BD4C
:10478000019BAB42F5D1F9E7B9814000A986400011
:1047900038B504461546034B984729462046024B38
:1047A000984738BD214740005947400038B5054675
:1047B0000B490C4B984710B10024204638BD0446E5
:1047C0002846094B98470028F7D041F2690200219A
:1047D000064B984780B2041C18BF0124EDE700BFC8
:1047E00001800100D337400015884000C9774000A0
:1047F00008B590F8223043F0010380F82230074BCF
:10480000984790F8223043F0020380F82230044B9E
:1048100098474068034B984708BD00BF8587400014
:10482000958740006F27420070B584B006460C465D
:10483000134B196801311960124DC9002868124BD9
:104840009847286070B102460D4B18686FF06043BE
:10485000034442F833600B4A126802EBC3035C6006
:1048600004B070BD094B0293094B0193094B0093AF
:10487000094B4FF4A27209490320094CA047FEE7F7
:10488000C80A402020A143206D074200649A4300DB
:10489000BC9D4300989A4300749D4300889D43004B
:1048A000E1FF410070B5044615461E460022044B48
:1048B0009847324629462046024B984770BD00BFB4
:1048C000E586400005474000B0F914300B80B0F990
:1048D00016304B80B0F918308B80B0F91A30CB808D
:1048E000704700002DE9F8430446114B9847D0B1BA
:1048F0000546A48AB0F814900E4B9847804641F6BE
:104900001202002128460C4FB847064641F23202F7
:1049100000212846B8473044201AA0EB0900404443
:1049200000B2BDE8F883B4F91400BDE8F88300BF15
:104930001588400035624000C97740002DE9F843F2
:104940000446114B9847D0B10546E48AB0F816905A
:104950000E4B9847804641F61002002128460C4F26
:10496000B847064641F2320200212846B847304493
:10497000201AA0EB0900404400B2BDE8F883B4F966
:104980001600BDE8F88300BF15884000696240004A
:10499000C977400010B50446044B9847638B013338
:1049A000E28A9B1A184400B210BD00BF3D49400086
:1049B000038B0133808A181A00B27047438B01338E
:1049C000C08A181A00B27047F8B5054641F61202BF
:1049D00000210C4EB047044641F613020021284640
:1049E000B047074641F2320200212846B0473C4416
:1049F000C4F10104A4EB40002C8B2044AC8A001BC2
:104A000000B2F8BDC9774000F8B5054641F610027E
:104A100000210C4EB047044641F611020021284601
:104A2000B047074641F2320200212846B0473C44D5
:104A3000C4F10104A4EB40006C8B2044EC8A001B01
:104A400000B2F8BDC9774000F8B507460C4641F200
:104A500032020021164EB047054621463846154B16
:104A60009847694209B20A462046134B984741F6D7
:104A7000120200213846B04723881844208041F6AE
:104A8000130200213846B047A388181AA08041F6C7
:104A9000100200213846B04763881844608041F610
:104AA000110200213846B047E388181AE080F8BDAB
:104AB000C9774000C948400077F5410000B583B090
:104AC0000023ADF804304FF42043ADF8063001AABE
:104AD0002A21034B9847BDF9040003B05DF804FB9D
:104AE0000108400000B583B04FF42043ADF8043016
:104AF0000023ADF8063001AA2A21034B9847BDF9DF
:104B0000060003B05DF804FB0108400070B50546DF
:104B100041F2010200210B4CA04706B241F204020F
:104B200000212846A04742F2D1739E4204D000B231
:104B3000984201D0002070BD2846034B98470120C1
:104B400070BD00BFC9774000F14740002DE9F04F2C
:104B500083B081460E460091144601929A46184B46
:104B6000984750B380460025B7B2A6B2DFF854B0DC
:104B700014E0A38A3B44A382E38A3344E382238B79
:104B80003B442383638B334463830023019A00995E
:104B90002046FFF7DBFF0135A8450ED0D9F80830D5
:104BA0001B6853F82540BAF1000FE2D04FF4803172
:104BB0002046D8470028EED1DBE703B0BDE8F08FF0
:104BC0004D884000C53740002DE9F04782B00446CB
:104BD0000D460121314B984720B10026304602B0E6
:104BE000BDE8F087824620462D4B984706462D4B60
:104BF000984780462C4B9847864210D040462B4B16
:104C0000984786420BD04046294B9847864206D0AB
:104C10004046284B9847864201D05646DEE720465C
:104C2000254B9847B4F91620B4F91830B4F91A6036
:104C300080B2A18A091AADF80010121AADF802204C
:104C40000344ADF804303044ADF806006A46294606
:104C500028461A4B984706460028BFD02046184BD6
:104C6000984704460028B9D0DFF85080DFF82C9030
:104C7000134F04F1140229462846C047064600286F
:104C8000ACD001212046C84728B92046B847044681
:104C90000028EED1A2E75646A0E700BFC537400086
:104CA0008587400095874000090540004905400080
:104CB000C50540000506400015464000B3F541001B
:104CC0001588400010B582B004460B88ADF800305E
:104CD0004B88ADF802308B88ADF80430CB88ADF846
:104CE00006306946054B984708B902B010BD20460A
:104CF000034B98476946034B9847F6E7C94B40007A
:104D0000958740004594400030B583B004460E4B73
:104D10009847B4F91620B4F91830B4F91A5080B293
:104D2000A18A091AADF80010121AADF80220034446
:104D3000ADF804302844ADF8060069462046034B20
:104D4000984703B030BD00BF15464000C54C400039
:104D50002DE9F04784B004460E461546476847B330
:104D600041F6120200213846DFF83481C0478146FF
:104D700041F6100200213846C04780464FF480318A
:104D80002046464B9847002868D04E44B7F8149008
:104D90004E4436B24544F88A05442DB241F23202FF
:104DA000002138463E4B984780B2064436B205444F
:104DB0002DB2A18A711A8EB20FFA86F8E08A2D1AE6
:104DC000ADB20FFA85F9B9F1000F08BFB8F1000FC5
:104DD0000CBF4FF0010A4FF0000A3CD02046314B87
:104DE000984702A92046304B98475FB1694638463C
:104DF0002E4B98470022694602A82D4B98478246C1
:104E0000002842D0A38A3344A382E38A2B44E3825E
:104E1000218B31442183638B1D44658300234A46E3
:104E200041462046234DA847002F32D0224622215A
:104E30003846214B984720461A4B9847002269462E
:104E400004F114001A4B9847BAF1000F00D110B1C9
:104E500038461A4B984704B0BDE8F087B7F91400FC
:104E600000FA89F93846164B9847A9EB00094E44D9
:104E700036B2B7F9160000FA88F83846114B984751
:104E8000A8EB000005442DB288E738460B4B984745
:104E9000B8E72046034B9847DDE700BFC537400021
:104EA000C9774000094D4000C9484000494A4000C8
:104EB00001F841004D4B400001084000B174400032
:104EC00035624000696240002DE9F04F85B004462C
:104ED000BB4B984710B105B0BDE8F08F2046B94BE9
:104EE00098478046009041F2070200212046B64DC7
:104EF000A847814606B241F2080200212046A84791
:104F0000074605B24346002B5DD0DDF800804046E1
:104F1000AE4B984701904046AD4B9847029009F43C
:104F2000C049B9F5005F54D007F4C047B7F5005F3A
:104F300064D043F20C0200212046DFF88C92C8476F
:104F400007460FFA80FB43F20D0200212046C847B6
:104F500002B2238B0133A18A5B1A1FFA83F80FFA7E
:104F600088FA638B0133E18A5B1A9BB203930FFAD1
:104F700083F907F4C047B7F5005F54D000F4C04090
:104F8000B0F5005F65D05E44B6B237B21544ADB23D
:104F90000FFA85FB41F20902002120468A4B98470F
:104FA000C0B2002869D0012870D00238072800F26A
:104FB0008380DFE810F0710087009F00A700BF002A
:104FC0008D00CC00E3002A4631462046814B9847AD
:104FD00081E726F4C043B3F5FA6FA5DCB3F57A7F19
:104FE000C8BFC3F57A73019A02FB03F37A4A82FBC6
:104FF0000312DE17C6EB621636B295E725F4C043FE
:10500000B3F5FA6F95DCB3F57A7FC8BFC3F57A7351
:10501000029A02FB03F3704A82FB0312DD17C5EB11
:1050200062152DB285E72BF4C043B3F5FA6FA5DC0A
:10503000B3F57A7FC8BFC3F57A730AFB03F36649F9
:1050400081FB03714FEAE37BCBEB611B0FFA8BFB18
:1050500094E722F4C043B3F5FA6F94DCB3F57A7F9A
:10506000C8BFC3F57A7309FB03F35B4981FB0321D6
:10507000DA17C2EB611212B285E741F26A420021EF
:105080000098514B9847C0B201281BD05A46394668
:105090002046504B98471EE7019A1346002AB8BF96
:1050A00001335B105746BAF1000FB8BF0AF1010790
:1050B000A3EB67073E4437B25A4639462046454B74
:1050C000984708E7019BA3EB08073E4437B2F3E794
:1050D000029A1346002AB8BF01335B10CB46B9F1E0
:1050E000000FB8BF09F1010BA3EB6B0B5D440FFA86
:1050F00085FBE1E7029B039AA3EB020B5D440FFAE9
:1051000085FBD9E7019A1346002AB8BF01335B102B
:105110005746BAF1000FB8BF0AF10107A3EB6707C2
:105120003E4437B2029B039AA3EB020B5D440FFA95
:1051300085FBC1E7019BA3EB08073E4437B2029B06
:10514000039AA3EB020B5D440FFA85FBB4E7019BC6
:10515000A3EB08073E4437B2029A1346002AB8BFB1
:1051600001335B10CB46B9F1000FB8BF09F1010B59
:10517000A3EB6B0B5D440FFA85FB9DE7019A134689
:10518000002AB8BF01335B105746BAF1000FB8BF11
:105190000AF10107A3EB67073E4437B2029A1346B0
:1051A000002AB8BF01335B10CB46B9F1000FB8BF7E
:1051B00009F1010BA3EB6B0B5D440FFA85FB7BE759
:1051C000AD47400015884000C9774000C9494000FC
:1051D000094A4000514D40001F85EB5130B583B066
:1051E00004460E4B9847B4F91620B4F91830B4F9B8
:1051F0001A5080B2A18A091AADF80010121AADF83F
:1052000002200344ADF804302844ADF80600694696
:105210002046034B984703B030BD00BF1546400001
:10522000C94B400038B505460C46024B9847AB6861
:105230009C8238BDB93C400070B4B0F914500D8068
:10524000B0F916204A80B0F918408C80B0F91A30B5
:10525000CB80866876B1B68AAD1B0D808568AD8A35
:105260002C448C808468A48A121B4A808268928AAB
:105270001344CB8070BC704770B584B006460D46B1
:1052800002A90F4B98470022294602A80D4B9847C8
:10529000044610B9204604B070BD4FF4804130463A
:1052A000094B98470028F5D0009501238DF804306C
:1052B0006A4611213046054B98479DF80440E9E7BE
:1052C0003952400051F64100C53740000108400006
:1052D00030B401F4C044B4F5005F0CD002F4C04413
:1052E000B4F5005F1BD09042A8BF10468842B8BFFB
:1052F000084630BC704721F4C044B4F5FA6FEDDCC9
:10530000B4F57A7FC8BFC4F57A7403FB04F40E4D7C
:1053100085FB0415E117C1EB651109B2DEE722F444
:10532000C044B4F5FA6FDEDCB4F57A7FC8BFC4F5CB
:105330007A7403FB04F3044A82FB0342DB17C3EBDA
:10534000621212B2CFE700BF1F85EB5130B401F4F7
:10535000C044B4F5005F0CD002F4C044B4F5005F63
:105360001BD09042A8BF10468842B8BF084630BC48
:10537000704721F4C044B4F5FA6FEDDCB4F57A7FE0
:10538000C8BFC4F57A7403FB04F40E4D85FB041505
:10539000E117C1EB651109B2DEE722F4C044B4F5B0
:1053A000FA6FDEDCB4F57A7FC8BFC4F57A7403FB0C
:1053B00004F3044A82FB0342DB17C3EB621212B20E
:1053C000CFE700BF1F85EB5190F8233003F00603B1
:1053D000062B00F05C832DE9F04F8BB00446AC4BFC
:1053E00098470546002800F054832046A94B98476B
:1053F000009094F8233013F0040F71D0278B0137FD
:10540000A38AFF1A3FB200262046A34B984701907B
:1054100094F8233013F0020F00F00282B4F81A90CF
:1054200009F10109E38AA9EB03090FFA89F94FF0A1
:105430000008002E40F01183B8F1000F40F00D83FA
:10544000238B0133A28A9B1A1BB29F4200F00C836C
:105450002046924B984708A92046914B984706A9A9
:105460002846904B9847002206A908A88E4B9847DB
:105470000646002800F00283E38A013B9944A4F821
:105480001A9041F26A4200212046884B9847C0B2E8
:10549000012800F0F782A38A013B1F44278308AA52
:1054A00027212046824FB847224622212846B84766
:1054B00020467A4B9847002120467E4B9847002291
:1054C00006A904F11400784B984716B9002800F09B
:1054D000E2822846784B984701200BB0BDE8F08F58
:1054E00041F2010200212046704B984707B242F278
:1054F000D176B74214BF0026012600F4C040B0F5B3
:10550000005F1DD028466D4B9847019042F2D17341
:105510009F4239D041F2020200212046DFF88C81FF
:10552000C0470FFA80F941F2030200212046C0472C
:10553000019B02B249463846614FB847074663E7C8
:1055400027F4C048B8F5FA6FDCDC28465B4B984777
:10555000019042F2D1739F4216D095F8233013F098
:10556000040F00F03681B8F57A7FC8BFC8F57A78A5
:10557000019B08FB03F8534B83FB08234FEAE877B2
:10558000C7EB63173FB2C5E70022114620464E4BDA
:10559000984741F2320200212046DFF81081C047CF
:1055A000074641F6130200212046C047BFB23844E7
:1055B00083B2029341F6120200212046C0473844CC
:1055C00082B2174603922046404B9847029BDF1950
:1055D00007443FB220463E4B9847824641F26A421A
:1055E00000212046C047C0B201280BD0BAF1000FFD
:1055F00090D0384B4FF00008DFF8E0B003951D461F
:10560000A146A7E0BAF1000F84D0324B4FF000085A
:10561000DFF8C8B002951D46A1461DE041F209021F
:1056200000212046214B9847C0B2082858D8DFE80F
:1056300000F005575705575705570500B9F91830B9
:10564000B4F914209B1A0133AB42B8BF2B461DB2EC
:1056500008F10108C24555D0D9F808301B6853F845
:1056600028404FF001112046D8470028F0D12046AD
:10567000194B98470028D1D0B9F91830B4F9142043
:105680009B1A0133AB42B8BF2B461DB2E0E700BF07
:10569000158840009D6340009D624000094D400018
:1056A000C9484000494A400001F84100C97740001C
:1056B0000108400005754000B1744000C949400030
:1056C000D15240001F85EB51956A4000BD4A400011
:1056D0004D88400000A0FFFFAD474000D337400099
:1056E00041F2080200212046B64B984700B200283C
:1056F000AED1238B0133A28A9B1A1BB29D42B8BF45
:105700001D46A5E72A46029D4C4612F5C04F3FF4C0
:1057100001AF039B13441BB253E041F20902002185
:105720002046A84B9847C0B207282ED8DFE800F0E3
:1057300004042D2D042D2D04B4F91830B9F91420CA
:105740009B1A0133AB42B8BF2B461DB208F10108CA
:10575000C2452CD0D9F808301B6853F828404FF0C8
:1057600001112046D8470028F0D12046964B984793
:105770000028D2D0B4F91830B9F914209B1A01339B
:10578000AB42B8BF2B461DB2E0E741F20802002150
:1057900020468C4B984700B20028D7D1238B013389
:1057A000A28A9B1A1BB29D42B8BF1D46CEE72A466D
:1057B000039D4C4612F5C04F3FF4ACAE029B134420
:1057C0001BB213F5C04F3FF4A5AE9F42B8BF1F46B2
:1057D000A0E641F20102002128467A4B984700B228
:1057E00042F2D17398427FF4BEAE41F23202002100
:1057F0002046DFF8D091C847074641F61202002143
:105800002046C84738441FFA80F841F613020021A9
:105810002046C8473FB207FA80F747443FB279E6CF
:1058200041F2040200212046664B98470FFA80F9A6
:1058300042F2D178C14514BF4FF000084FF0010883
:1058400000F4C040B0F5005F1ED028465F4B98477B
:10585000029042F2D17399453BD041F205020021FA
:105860002046DFF860A1D0470FFA80FB41F2060224
:1058700000212046D047029B02B259464846DFF835
:105880006891C8478146D4E529F4C04ABAF5FA6F51
:10589000DBDC28464D4B9847029042F2D173994584
:1058A00017D095F8233013F0020F00F0AD80BAF551
:1058B0007A7FC8BFCAF57A7A029B0AFB03FA444B87
:1058C00083FB0A234FEAEA79C9EB63190FFA89F9D6
:1058D000C3E70022114620463E4B984741F2320270
:1058E00000212046DFF8DCB0D847824641F610029E
:1058F00000212046D8471FFA8AFA50441FFA80F93F
:1059000041F6110200212046D847504483B2039348
:105910002046314B9847039B994481440FFA89F9FB
:1059200020462E4B98478346002896D02C4B4FF0AC
:10593000000A049605951D4616E041F20902002171
:105940003046204B9847C0B2032828D8B6F91A3001
:10595000B4F916209B1A0133AB42B8BF2B461DB2D7
:105960000AF1010AD34541D0A3681B6853F82A60A5
:105970004FF0011130461B4B98470028F0D13046BC
:10598000114B98470028D8D0B6F91A30B4F9162030
:105990009B1A0133AB42B8BF2B461DB2E0E741F280
:1059A000080200213046074B984700B20028D7D1A3
:1059B000738B0133F28A9B1A1BB29D42B8BF1D46FE
:1059C000CEE700BFC9774000AD474000094A40001C
:1059D0001F85EB51356B4000E54A40004D88400083
:1059E00000A0FFFFD33740004D534000049E2A46DD
:1059F000059D12F5C04F3FF430AF039B13441BB21B
:105A00009945B8BF994628E741F20402002128468B
:105A1000224B984700B242F2D17398427FF447AFCD
:105A200041F2320200212046DFF870A0D0478346C1
:105A300041F6100200212046D04758441FFA80F951
:105A400041F6110200212046D0470FFA8BFB0BFADA
:105A500080FBD9440FFA89F9FFE60023019A0099E7
:105A600020460F4EB047EBE4638B0133E28A9B1A6A
:105A70001BB299457FF4ECAC00202EE52846094B7B
:105A80009847F9E4238B0133DF1BA78207E5002049
:105A90007047002021E501201FE500BFC9774000C5
:105AA000956B4000B174400070B50546254B984792
:105AB00080B106460024AB681B6853F82400FFF74A
:105AC000F3FF0134A642F6D195F8223013F0010F0E
:105AD00012D170BD95F8223013F0010FF9D095F86E
