S01E000052544F532D4F4C45442D58706C61696E65642D50726F2E73726563AD
S214400000702D4020B10F4000AD0F4000AD0F4000B6
S214400010AD0F4000AD0F4000AD0F400000000000A7
S214400020000000000000000000000000A112400098
S214400030AD0F400000000000C51240002D134000E8
S214400040AD0F4000AD0F4000AD0F4000AD0F40007B
S214400050AD0F4000AD0F4000AD0F4000AD0F40006B
S214400060AD0F400000000000D50D4000E90D4000F7
S214400070FD0D4000AD0F4000AD0F4000AD0F4000FD
S214400080110E4000250E4000AD0F4000AD0F400061
S214400090AD0F4000AD0F4000AD0F4000AD0F40002B
S2144000A0AD0F4000AD0F4000AD0F4000AD0F40001B
S2144000B0AD0F4000AD0F4000AD0F4000AD0F40000B
S2144000C0AD0F4000AD0F4000AD0F4000AD0F4000FB
S2144000D000000000AD0F400000000000AD0F4000E3
S2144000E0AD0F4000AD0F4000AD0F4000AD0F4000DB
S2144000F0AD0F4000AD0F4000AD0F4000AD0F4000CB
S214400100AD0F4000AD0F4000AD0F4000AD0F4000BA
S214400110AD0F40000000000000000000000000009E
S214400120AD0F4000AD0F4000AD0F4000AD0F40009A
S214400130AD0F400000000000AD0F4000AD0F400086
S21440014010B5054C237833B9044B13B10448AFF3CC
S21440015000800123237010BDD0094020000000001D
S214400160E47F40000C4B43B10C480D4910B5AFF34B
S21440017000800C48036823B910BD0A48036833B9A9
S2144001807047094B002BF7D0BDE810401847064B88
S214400190002BF5D0184700BF00000000E47F400069
S2144001A0D4094020E47F400000000000034B1B6859
S2144001B043F480231943016000207047EC09402037
S2144001C0826883689A4203D0826883689342FBD1F0
S2144001D01846704708B5074B984203D0064B9842DE
S2144001E004D008BD1520054B984708BD2A20034B70
S2144001F09847F6E70080004000800540590F4000D1
S214400200436823F4702343604368090401F4702173
S21440021019434160704730B443F69924056915F098
S214400220020F03D1013CF9D101200CE0446814F0E0
S214400230020F06D0120402F4702211430BB141F0B3
S2144002408071C160002030BC704732B900EB81003D
S214400250036B23F001030363704700EB8100036BDD
S21440026043F001030363704732B900EB8100036B30
S21440027023F002030363704700EB8100036B43F0F7
S214400280020303637047042A03D06AB1082A16D0D3
S214400290704700EB8100036B23F008030363036B96
S2144002A043F004030363704700EB8100036B23F0C5
S2144002B008030363036B23F004030363704700EBF8
S2144002C08100036B43F008030363E1E700EB810121
S2144002D00B6B23F0F0030B630B6B1A430A637047F8
S2144002E0431E1944B1FBF0F0431EFE2B94BF00B2F0
S2144002F04FF0FF3070477AB110B4144600EB8101DE
S2144003000B6B23F47F430B630A6B42EA04220A63B7
S21440031000205DF8044B70474FF0FF3070470000F8
S214400320014B1860704700BFF0094020024B1B6825
S21440033003EBC01042547047F0094020024B1B6844
S21440034003EBC010405C7047F00940202DE9F047B1
S2144003508418802C02DDC0F18004E2B222B3CD08BE
S214400360A1EBC501012606FA01F1CEB2012B1DD044
S214400370002B35D0022B17D10138C7B2D419E4B2BE
S214400380DFF890A04FF00009DFF88C802146284621
S214400390D04786EA00024B46D2B221462846C0479E
S2144003A0013CE4B2BC42F1D1BDE8F0870138C7B2A7
S2144003B0D419E4B2DFF85CA04FF00009DFF85880AB
S2144003C021462846D04746EA00024B46D2B221464E
S2144003D02846C047013CE4B2BC42F1D1BDE8F087B4
S2144003E00138C7B2D419E4B2DFF82880CE43DFF82C
S2144003F0289021462846C04706EA00020023D2B28B
S21440040021462846C847013CE4B2BC42F1D1BDE88B
S214400410F08700BF4D064000490540002DE9F843EF
S2144004209DF820708BB11C46904606464D1EEDB298
S2144004302C44E4B2DFF818903B464246214630460C
S214400440C847013CE4B2AC42F6D1BDE8F88300BFF1
S2144004504D0340002DE9F04F83B004468846914650
S2144004609B465B7A9BF8082000210091494640460F
S214400470214DA8479BF8003013B103B0BDE8F08F7C
S2144004809BF80820D30812F0070F18BF01339BF8DB
S21440049009A09BF80A70E71B17FB0AF717FB03F740
S2144004A0DBF8043013FA87F71FE06400E4B2013546
S2144004B0EBB29E4210D9EBB208EB0300C0B213F089
S2144004C0070F08BF17F8014B14F0800FEDD001223C
S2144004D049460A4B9847E8E709F101095FFA89F966
S2144004E00AF1FF3A1AF0FF0AC7D09BF80860002EC0
S2144004F0F2D000252C46DEE71D044000E90540000A
S2144005002DE9F843044690461D4689460D4F0E4653
S21440051008E06A7A013242445FFA82F8B14614F83B
S214400520013F6BB120780A28F3D00D28F7D02B4630
S21440053042464946B8472B7A99445FFA89F9EEE72E
S214400540BDE8F8835504400070B504460D4616468F
S2144005501BB90D4B9847B04215D032462946204627
S2144005600A4B984704F00F0040F0B000084CA047F4
S214400570C5F3021040F01000A04705F00F00A0475A
S2144005803046044B984770BD3D0340002D03400065
S21440059059064000790840002DE9F0410D480E4BC1
S2144005A098470E4B984740200D4B984700254FF0F4
S2144005B001082F460B4E002443463A46E1B22846F1
S2144005C0B0470134802CF7D10135EDB2042DF2D17D
S2144005D0BDE8F081F4094020210340009906400020
S2144005E05906400049054000C3092AD11F2928D88A
S2144005F02DE9F04114460546CE08A1EBC60101227E
S21440060002FA01F75FFA87F8014630460D4B9847E5
S2144006100246012C09D064B1022C0ED00023294694
S2144006203046094CA047BDE8F08148EA0002D2B205
S214400630F4E720EA0702D2B2F0E788EA0002D2B234
S214400640ECE770473D0340004905400008B5014BC4
S214400650984708BD3D03400038B505460822094B7B
S2144006605A63094C01212046084B984701231A46F5
S21440067029462046064CA0474FF4FD70054B984748
S21440068038BD00BF00100E40008000400102400010
S21440069017024000010040202DE9F843664D4FF414
S2144006A000362E61C5F8A060644B08271F61C3F86A
S2144006B0A0706E66C5F890606E656E62C5F8806024
S2144006C02A6F22F400322A676A6F22F400326A6781
S2144006D05F66C3F890705F655F62C3F880701A6F9C
S2144006E022F008021A675A6F22F008025A671F6003
S2144006F02E601F632E63DFF87C8100234FF4800258
S2144007004FF0805140464E4CA04700234FF4001215
S2144007104FF080514046A04700234FF000724FF004
S21440072080514046A04700234FF480024FF080514E
S2144007304046A04700234FF400124FF080514046F9
S214400740A04700234FF000724FF080514046A0472C
S2144007503C4C4FF00209C4F800904FF08008C4F8B3
S2144007600080636843F0010363603A4601212046F7
S214400770354B9847002201212046344B98470022AB
S21440078001212046324B9847636823F0020363609A
S2144007900022012120462F4B9847636823F08003B0
S2144007A06360636843F0100363602B492B482C4B0F
S2144007B09847C2B2012120462A4B984720462A4BEA
S2144007C09847012323606E6340F6B830274CA04715
S2144007D02E6340F6B830A0472E63A820244CA0478E
S2144007E01F20A047D320A0470020A0474020A04776
S2144007F0A120A047C820A047DA20A0474846A047E7
S2144008008120A0478F20A047A420A047A620A0472D
S214400810D520A0474046A0478D20A0471420A0479B
S214400820DB20A0474020A047D920A047F120A04782
S214400830AF20A047BDE8F88300120E4000100E40DF
S214400840450C400000800040870240004B024000BC
S21440085069024000CD02400080D1F00880841E002E
S214400860E1024000F7024000D50140000100402070
S2144008705906400000140E4038B505460822094B7C
S2144008801A63094C01212046084B984701231A4613
S21440089029462046064CA0474FF4FD70054B984726
S2144008A038BD00BF00100E400080004001024000EE
S2144008B0170240000100402010B51048104B9847E2
S2144008C03E2100200F4B98470F4CA0470028FCD0F5
S2144008D00E4B98470E4A0F4B9A620F4CA047002883
S2144008E0FCD002200D4B984700200D4B98470D4BEF
S2144008F098470248024B984710BD00BF00A3E1113D
S21440090085114000D50E4000290F4000390F4000A9
S214400910013F182000060E40490F4000390E4000A7
S214400920710E4000791040002DE9F04180B90C4628
S2144009309046002A0FDD8F18084E094D3068214634
S2144009402B6898470134BC42F8D14046BDE8F08158
S2144009504FF0FF38F9E78046F7E700BF400D4020EC
S214400960380D40200138022815D82DE9F0410E46B2
S21440097014469AB10D46DFF838800C4FD8F8000080
S21440098015F8011B3B68984700280ADBA81B013C6A
S214400990F4D1BDE8F0814FF0FF3070471046BDE817
S2144009A0F0814FF0FF30BDE8F08100BF3C0D4020A5
S2144009B0400D4020F8B54FF400425C4B5A60BFF300
S2144009C04F8FBFF36F8F5A4B0022C3F850225A699D
S2144009D042F400325A61BFF34F8FBFF36F8FD3F8A4
S2144009E08070C7F34E3607F007000430C7F3C907D8
S2144009F0B7FA87FE0EF01F0EBFF34F8F4FF0FF344F
S214400A0004FA00FC06FA00F004FA0EF407FA0EFEAA
S214400A101D463A46734640EA0301C5F86012013A5D
S214400A202344B2F1FF3FF6D1013E6044B6F1FF3FAA
S214400A30EFD1BFF34F8F3E4B5A6942F480325A6132
S214400A40BFF34F8FBFF36F8F3A4A3B495160A1F5D2
S214400A5080715160BFF34F8FBFF36F8FD3F89022F2
S214400A6022F00102C3F89022D3F8942222F0010229
S214400A70C3F89422BFF34F8FBFF36F8F0A202F4CDB
S214400A80A0470B20A0470C20A0471020A0471120CD
S214400A90A0472B4B4FF480721A61C3F8A0201A630C
S214400AA0A3F580634FF400625A61C3F8A0205A66EB
S214400AB0C3F890205A651A62C3F88420196F21F44F
S214400AC000611967596F21F400615967C3F8C02067
S214400AD0C3F8D420C3F8B0204FF400121A66C3F807
S214400AE090205A655A62C3F88020196F21F400118D
S214400AF01967596F21F4001159675A60114AD2F8A4
S214400B00143143F01003C2F814310F4B10221A660A
S214400B10C3F890205A655A62C3F88020196F114373
S214400B201967596F114359675A60F8BD50180E40FF
S214400B3000ED00E0000C0E400C08005A590F400033
S214400B4000120E400080084000100E4001637047BF
S214400B50416370474264B1F1C05F3AD013D8B1F1F7
S214400B60006F25D0B1F1805F0AD1036F134303674E
S214400B70436F416F0B4023EA02034367426070476E
S214400B800029FBD17047B1F1205F21D009D8B1F1DF
S214400B90005FF3D1036F13430367436F1343436709
S214400BA0ECE7B1F1405F13D0B1F1605F10D0E5E7FC
S214400BB010B4016F046FD34321401C4619400167AF
S214400BC0436F416F0B402340436742605DF8044BE0
S214400BD07047036F016F0B4023EA02030367436FBE
S214400BE013434367CAE7416412F0010F0DD1016613
S214400BF012F00A0F0BD0016212F0020F09D112F068
S214400C00080F08D0C0F8841005E04166F0E741625E
S214400C10F2E7C0F8801041610160704710B4019C53
S214400C2041644CB901664BB101654AB94163016103
S214400C3001605DF8044B70474166F4E74165F4E7B0
S214400C400163F4E770B582B0054616461C46B1F11E
S214400C50005F14D00AD9B1F1405F24D0B1F1605F93
S214400C6021D0B1F1205F17D000201AE0B1F1805FAB
S214400C7005D0B1F1C05F02D0B1F1006FF4D1324679
S214400C802846114B984714F0010F02D12E660120DA
S214400C9007E06E66012004E01A4631460B4B984743
S214400CA0012002B070BD04F001030093C4F380033A
S214400CB0B1F1605F14BF0022012231462846044C41
S214400CC0A0470120EDE700BF550B4000E70B400072
S214400CD01D0C400012F0100F12D0C0F8B01012F0E9
S214400CE0200F07D0C0F8D41012F0400F05D0C0F83F
S214400CF0C0107047C0F8D010F6E7C0F8C410704770
S214400D00C0F8B410704701647047C06C7047806C80
S214400D10704700002DE9F041044688460E4B984740
S214400D20054620460D4B9847054013D00C4C04F121
S214400D30600603E0B4420DD010345DB120684045F3
S214400D40F8D161682942F5D0E3689847636825EA98
S214400D500305EFE7BDE8F0810B0D40000F0D4000A6
S214400D60F40B4020F8B5184C2668062E2AD84FF0CB
S214400D70000C6446154F04E00134E4B2A446A64293
S214400D8009D3A64625017D598D42F5D107EB0415BA
S214400D906D689542F0D10D4D4FEA0E1E05EB0E04E0
S214400DA045F80E106260A3600699E160013666451C
S214400DB005D011461A46064B98470020F8BD024912
S214400DC00E60F6E70120F8BD640C4020F40B40208E
S214400DD0D50C400008B50A210148024B984708BD8B
S214400DE0000E0E40150D400008B50B210148024B81
S214400DF0984708BD00100E40150D400008B50C2160
S214400E000148024B984708BD00120E40150D4000A1
S214400E1008B510210148024B984708BD00140E4003
S214400E20150D400008B511210148024B984708BDF2
S214400E3000160E40150D4000032811D0042812D08D
S214400E4002280CBF4FF480710021084A136B23F42C
S214400E5040730B431363936E13F0080FFBD0704739
S214400E604FF44071F1E74FF40071EEE700060E4094
S214400E70174A136B23F0700318431063936E13F0F6
S214400E80080F0AD14FF4805311498A6E12F0080FAA
S214400E9003D1013BF9D1012070470D4A136B23F073
S214400EA0030343F002031363936E13F0080F0AD153
S214400EB04FF4805306498A6E12F0080F05D1013B65
S214400EC0F9D101207047002070470020704700BFCE
S214400ED000060E40A0B90E48036A090289B20D4AC0
S214400EE01A400D4B1343194301620246936E13F0AA
S214400EF0010FFBD0064A116A084B0B43136270473A
S214400F0003490B6A064A1A40064B13430B62704766
S214400F1000060E40FCFFC8FF010037000000370106
S214400F20FCFFC8FE02003701024B986E00F480308A
S214400F30704700BF00060E404FF00052014B9A62C9
S214400F40704700BF00060E40024B986E00F002004D
S214400F50704700BF00060E403F281ED81F280CD8FA
S214400F60114B9A6901238340934318D0012303FA17
S214400F7000F00D4B18610020704720380A4BD3F81C
S214400F8008210123834093430BD0012303FA00F04A
S214400F90054BC3F800010020704701207047002031
S214400FA070470020704700BF00060E40FEE7000076
S214400FB000B583B0254B264A9A4210D0254B234A8B
S214400FC09A420CD2013B9B1A23F00303043313448A
S214400FD01F4951F8040B42F8040B9A42F9D11E4BB4
S214400FE01E4A9A420AD2013B9B1A23F0030304335B
S214400FF01344002142F8041B9342FBD1184A194B74
S21440100023F07F039360EFF31083B3FA83F35B0917
S214401010019372B6BFF35F8F0022134B1A7001998B
S214401020124A136843F470031360BFF34F8FBFF345
S2144010306F8F29B101220C4B1A70BFF35F8F62B6D7
S2144010400B4B98470B4B9847FEE700BF00004020ED
S214401050E47F4000D00940206C0D4020D00940205D
S21440106000ED00E0000040001800402088ED00E061
S214401070C1174000BD1640003B4B1B6B03F00303FB
S214401080012B1DD083B1022B36D0374B1B6B03F0A0
S2144010907003702B5FD0344B1A6B3449C2F3021284
S2144010A00B68D3400B607047314B5B6913F0800F81
S2144010B014BF4FF400424FF4FA422C4B1A60E4E758
S2144010C0294B1B6A13F0807F03D02A4A274B1A60AD
S2144010D0DBE7294A254B1A60234B1B6A03F0700353
S2144010E0102B05D0202BD0D1224A204B1A60CCE7BB
S2144010F0224A1E4B1A60C8E71B4B1B6A13F0807FC0
S21440110016D01C4A194B1A60174B1B6B03F003038F
S214401110022BBAD1144A916A926A1448C1F30A4122
S214401120036801FB0333D2B2B3FBF2F30360ACE7D0
S214401130114A0E4B1A600C4B1B6A03F07003102BBF
S21440114005D0202BE0D10B4A084B1A60DCE70B4A4F
S214401150064B1A60D8E7054A13680949A1FB0313F2
S2144011605B081360704700BF00060E401C0040201E
S21440117010180E40001BB70000093D0000127A0010
S214401180ABAAAAAA164B984213D9164B984215D921
S214401190154B984216D9154B984217D9144B98427E
S2144011A018D9144B984294BF134A144A144B1A60E9
S2144011B070474FF08062124B1A607047114A104BCE
S2144011C01A607047104A0E4B1A6070470F4A0C4B15
S2144011D01A6070474FF00422094B1A60704700BFF0
S2144011E0BFF35E017FE7BD023FDB1C04FFCE7B05FD
S2144011F0BFC2DA067FB639080005000400060004C0
S214401200000C0E400001000400020004000300042D
S2144012100A4B1B6853B1094B1B681A180849914280
S21440122008DB1046054A106018467047054A034BCF
S2144012301A60F0E74FF0FF30704700BF680C402060
S214401240FCFF4520702F40204FF0FF3070474FF492
S21440125000534B60002070470120704700207047C5
S21440126043684B609A688A609A68516099600861E2
S2144012700368013303607047036942688168916080
S2144012808268416851605A68904205D000220261E7
S214401290186801381860704782685A60F6E70000A0
S2144012A0064B19680868B0E8F04F80F30988BFF32A
S2144012B06F8F4FF0000080F3118870476C0C402011
S2144012C0704700BFEFF30980BFF36F8F154B1A6866
S2144012D01EF0100F08BF20ED108A20E9F04F106076
S2144012E04DF8043D4FF0800072B680F31188BFF38E
S2144012F04F8FBFF36F8F62B600F0F0F84FF00000EC
S21440130080F3118808BC19680868B0E8F04F1EF0F2
S214401310100F08BFB0EC108A80F30988BFF36F8FB8
S214401320704700BF6C0C4020704700BF08B5EFF315
S21440133011834FF0800272B682F31188BFF36F8F2D
S214401340BFF34F8F62B6054B984718B14FF08052A7
S214401350034B1A60002383F3118808BD91134000A5
S21440136004ED00E0084B1B681B683BB1064B1B684E
S214401370DB68DB685A68054B1A6070474FF0FF32EF
S214401380024B1A60704700BF700C4020E80C4020AB
S2144013902DE9F047424B1B68002B78D1414B1A6829
S2144013A001321A601E68D6B93F4B1B681B6853B1A2
S2144013B04FF0800372B683F31188BFF36F8FBFF38D
S2144013C04F8F62B6FEE7384A1168384B186810608F
S2144013D01960374A136801331360364B9847364BCB
S2144013E01B689E4218D20024344B1B68DB6A03EB12
S2144013F08303334A52F82330022B28BF0124314B53
S2144014001B680BB9304B9847304B1B68002B0CBF02
S21440141020460120BDE8F0870024DFF88C90DFF8F6
S214401420B8802B4F1FE04FF0FF32234B1A60DBE7AC
S214401430214A1360D8E705F11800C047E86A3A68C1
S2144014400123834013433B6000EB800051461C4B16
S21440145003EB80001F4B9847184B1B68EA6ADB6A11
S2144014609A4228BF0124D9F800301B68002BDAD0F6
S214401470D9F80030DB68DD686B689E42D8D305F14A
S214401480040A5046C047AB6A002BD4D1D6E70D4A73
S2144014901368013313600C4B98470024B4E700BF31
S2144014A0E00C4020F00C4020700C4020740C402093
S2144014B0EC0C402065134000E80C40206C0C4020AB
S2144014C0780C4020DC0C402039164000F40C4020BC
S2144014D0E40C402061124000791240002D4B1B68FE
S2144014E0002B2CD110B500222B4B1A602B4B1B68BF
S2144014F01B6B1A68B2F1A53F03D15A68B2F1A53FFB
S21440150021D0264B186819683431254B9847254B0F
S2144015101B68B3FA83F3DBB2C3F11F0303EB83010B
S214401520214A52F82120BAB94FF0800372B683F3AD
S2144015301188BFF36F8FBFF34F8F62B6FEE701226D
S214401540154B1A6070479A68B2F1A53FD9D1DB684F
S214401550B3F1A53FD5D1DAE7134A9900C81802EB94
S21440156080004468646844601944024608329442E5
S21440157009D003EB83030C4A02EB83035B68DA680B
S214401580064B1A6010BD6068074A02EB8102506045
S214401590EFE700BFE00C4020F40C40206C0C4020ED
S2144015A021164000E40C4020780C402008B5144B2F
S2144015B01B68DBB90122134B1A601348134B98473C
S2144015C0C31EB3F5C67F05D8114B03FB00F35B087B
S2144015D0104A136001280ED901220F4B1A60084AA0
S2144015E01368B3FA83F35B09136008BD012106480C
S2144015F00A4B9847F3E70022064B1A60EFE700BF16
S21440160020004020000D402030180E40C101400010
S21440161000FD4314F80C4020FC0C4020AD01400077
S21440162008B50A4601460248024B9847FEE700BF07
S214401630F47C4000111840007047000030B583B07D
S2144016401020154CA04700234FF080424FF04051E9
S2144016501248134DA8470A20A047124C00234022A8
S2144016604FF020512046A8470F4B009340231A4680
S2144016700A2120460D4DA847402120460C4B98474E
S21440168020460C4B98470C4B4FF480621A608022E1
S21440169083F80A2303B030BD590F400000140E40B3
S2144016A0450C4000000E0E40AD154000650D400054
S2144016B0070D40000B0D400000E100E02DE9F04131
S2144016C082B02E4B98472E4B98472E4B98472E4B22
S2144016D098474FF400422D4B5A6000242C4E2D4D17
S2144016E02D4F29E04FF0804138462C4B98474FF419
S2144016F0FD70B0474FF080413846294B98472B68DD
S21440170023B94CF28E50B047012415E0002419E06E
S214401710244B1A68244901A8244B9847244B10228E
S214401720002101A8DFF89480C0474CF28E50B047A5
S2144017300134B4F5967F1CDCB4F5967FD2D02B6886
S214401740002BF2D02B68B3FA83F35B092B60194B5E
S2144017501B68002BDCD0174A1368B3FA83F35B0987
S2144017601360134B102200211348DFF85080C04707
S214401770DBE7002002B0BDE8F08100BFB9084000BA
S214401780B50940003D1640009905400050180E40EF
S21440179001004020000D402000140E404D0B40003C
S2144017A0510B4000F80C4020EC7C4000B51F400038
S2144017B00C004020FC0C4020DC7C40000105400032
S2144017C070B50F4E0F4D761BB61018BF002405D0CF
S2144017D0013455F8043B9847A642F9D10A4E0B4DC2
S2144017E0761B06F0E9FBB61018BF002406D001347D
S2144017F055F8043B9847A642F9D170BD70BD00BF6E
S214401800C47F4000C47F4000CC7F4000C47F40007F
S2144018100FB400B5074983B004AB086853F8042BEF
S2144018208168019301F0C8FE03B05DF804EB04B094
S214401830704700BF24004020024B0146186800F065
S21440184003B800BF240040202DE9F04F01F10B06FD
S214401850162E83B0054640F29E8036F0070600F10D
S214401860BD80B14200F2BA8000F086FBB6F5FC7F40
S214401870C0F09382730A00F0B880042B00F279819E
S214401880B30903F1390003F1380EC300BF4F3B44A0
S214401890A3F108015C68A14206D10CE0002A80F260
S2144018A0AA80E468A14206D0636823F003039A1B2B
S2144018B00F2AF3DD70463C69DFF8E4E2744500F039
S2144018C0AB81636823F003039A1B0F2A00F39081D1
S2144018D0002AC7F814E0C7F810E080F29D80B3F500
S2144018E0007F80F06181DB0803F1010C99107A6873
S2144018F057F83C80C4F8088001238B4007EBCC01A6
S21440190013430839E1607B6047F83C40C8F80C4018
S2144019108210012494409C4200F28B801C4206D1E7
S21440192020F0030064001C4200F10400FAD007EBEC
S214401930C009CC468046DCF80C309C4507D16DE1AA
S214401940002A80F27B81DB689C4500F067815968FD
S21440195021F003018A1B0F2AF2DDD3F80CC0D3F81E
S214401960088000939C19284646F0010642F001057F
S2144019705E60C8F80CC0CCF808807C613C61C4F856
S2144019800CE0C4F808E065605A5000F0FBFA009B93
S21440199003F108041EE0102920D800F0EDFA1026C6
S2144019A018230220794F3B44A3F108025C68944216
S2144019B000F03D816368E168A66823F00303234492
S2144019C028465A68F16042F001028E605A6000F084
S2144019D0D9FA0834204603B0BDE8F08F00240C2323
S2144019E020462B6003B0BDE8F08F40204FF40073D4
S2144019F04FF03F0E4AE72344E1685A68A66842F033
S214401A000102F16028468E605A6000F0BBFA083446
S214401A10204603B0BDE8F08F234428465A6842F07B
S214401A2001025A6000F0AEFA0834204603B0BDE822
S214401A30F08FBC68636823F00308B04504D3A8EB76
S214401A4006030F2B00F38580DFF85891504BD9F8EA
S214401A5000201B680132334404EB080A00F055812D
S214401A6003F580530F3323F47F6B2BF00F0B59464F
S214401A70284600F08DFA411C024600F0FC80824564
S214401A8000F2F780434B19685944196000F04D81C5
S214401A90D9F8000001301BBFA2EB0A0A5144C9F82E
S214401AA00020196012F0070100F01581C1F108000E
S214401AB0C1F580510244083102EB0B09C9F30B090A
S214401AC0A1EB0909494628460193009200F060FAC6
S214401AD0431C9DE80C0000F04381801A484440F0C7
S214401AE001001968BA604944BC425060196017D07A
S214401AF0B8F10F0F40F2FB806068A8F10C0222F0AC
S214401B00070204EB020E00F001004FF0050C1043F4
S214401B100F2A6060CEF804C0CEF808C000F21781E5
S214401B201D4BBC681A68914288BF19601B4B1A68E7
S214401B309142626888BF196022F003029642A2EB87
S214401B40060301D80F2B04DC284600F01BFA0024BD
S214401B5040E7A21943F0010346F0010666602846B6
S214401B60BA60536000F00EFA0834204603B0BDE871
S214401B70F08F142B71D9542B00F2A380330B03F152
S214401B806F0003F16E0EC30080E600BF5004402095
S214401B90340D4020040D40202C0D4020300D4020B8
S214401BA058044020580840205A0A042A5BD9142A70
S214401BB000F2AE8002F15C01C9005B3207EB010C1B
S214401BC07958ACF1080C8C4500F088804A6822F0C1
S214401BD00302934273D289688C45F7D1DCF80C2017
S214401BE07B68E260C4F808C09460CCF80C408FE68E
S214401BF0A11946F0010C42F00106C4F804C028467C
S214401C0079613961C1F80CE0C1F808E04E60E250F5
S214401C1000F0B8F90834DDE67B6879E608F101089B
S214401C2018F0030F0CF1080C7FF485AE2DE0DC684D
S214401C30A34208BF02303FF43EAEBBE619441C4602
S214401C404A68DB6854F8086F42F001024A6028464A
S214401C50F3609E6000F096F9BCE603F15C0003F189
S214401C605B0EC30012E69A0902F13901C900383208
S214401C70A4E7BC4254D0BC68626822F003025DE729
S214401C8059F80839994540F0868010F0030F00F166
S214401C90FF30F5D17B6823EA04037B6064009C42F6
S214401CA03FF6C7AE002C3FF4C4AE1C4240467FF41D
S214401CB03EAE64001C4200F10400FAD037E68C4683
S214401CC08CE7B3F5AA7F15D8F30B03F1780003F140
S214401CD0770EC300DAE54FF48051EDE67B6892104C
S214401CE0012101FA02F213437B60624679E7012341
S214401CF0536029E740F25452934222D8B30C03F182
S214401D007D0003F17C0EC300C0E503F1100BAEE688
S214401D10542A29D81A0B02F16F01C9006E324DE7DA
S214401D20204B196859441960B2E6CAF30B000028E4
S214401D307FF4AEAE08EB0B03BA6843F00103536082
S214401D40EEE67F204FF47E734FF07E0E9EE504F164
S214401D5008012846009303F00BFD009B1968DFE658
S214401D6001204FF00009BCE6B2F5AA7F05D8DA0B91
S214401D7002F17801C900773220E740F254518A4296
S214401D8005D89A0C02F17D01C9007C3216E74FF463
S214401D907E717E2212E77B6880E7F00806F1080332
S214401DA000E600BF040D4020844641EA000313F0DD
S214401DB003036DD1403A41D351F8043B40F8043B0D
S214401DC051F8043B40F8043B51F8043B40F8043BD0
S214401DD051F8043B40F8043B51F8043B40F8043BC0
S214401DE051F8043B40F8043B51F8043B40F8043BB0
S214401DF051F8043B40F8043B51F8043B40F8043BA0
S214401E0051F8043B40F8043B51F8043B40F8043B8F
S214401E1051F8043B40F8043B51F8043B40F8043B7F
S214401E2051F8043B40F8043B51F8043B40F8043B6F
S214401E3051F8043B40F8043B403ABDD2303211D30F
S214401E4051F8043B40F8043B51F8043B40F8043B4F
S214401E5051F8043B40F8043B51F8043B40F8043B3F
S214401E60103AEDD20C3205D351F8043B40F8043B0F
S214401E70043AF9D2043208D0D2071CBF11F8013B0D
S214401E8000F8013B01D30B8803806046704700BFD3
S214401E90082A13D38B078DD010F003038AD0C3F1E2
S214401EA00403D21ADB071CBF11F8013B00F8013BC4
S214401EB080D331F8023B20F8023B7BE7043AD9D383
S214401EC0013A11F8013B00F8013BF9D20B78037058
S214401ED04B7843708B7883706046704770B4860743
S214401EE046D0541E002A41D0CAB2034602E014F13E
S214401EF0FF343BD303F8012B9D07F8D1032C2ED992
S214401F00CDB245EA05250F2C45EA054519D903F11A
S214401F1010022646103E0F2E42F8105C42F80C5C2B
S214401F2042F8085C42F8045C02F11002F2D8A4F1D0
S214401F30100222F00F0204F00F041032032C134458
S214401F400DD91E462246043A032A46F8045BFAD8C0
S214401F50221F22F003020432134404F003042CB17F
S214401F60C9B21C4403F8011B9C42FBD170BC7047AD
S214401F7014460346C2E700BF014803F0A1BE00BFB7
S214401F80540D4020014803F09DBE00BF540D402034
S214401F9038B5074C0023054608462360FFF738F956
S214401FA0431C00D038BD2368002BFBD02B6038BDC7
S214401FB0680D40200EB4F0B59CB021AB0F4953F8E5
S214401FC0042B019305466FF00044086802954FF4D1
S214401FD002774FF6FF7602A90695ADF81470049482
S214401FE00794ADF8166000F079F8029B00221A704C
S214401FF01CB0BDE8F04003B0704700BF240040204E
S21440200090F800F06DE9024520F007016FF0000CF3
S21440201010F0070491F820F040F049804FF000049B
S2144020206FF00700D1E9002391F840F000F1080076
S21440203082FA4CF2A4FA8CF283FA4CF3A2FA8CF3AE
S2144020404BBBD1E9022382FA4CF200F10800A4FA15
S2144020508CF283FA4CF3A2FA8CF3E3B9D1E9042369
S21440206082FA4CF200F10800A4FA8CF283FA4CF3A0
S214402070A2FA8CF37BB9D1E9062301F1200182FA5A
S2144020804CF200F10800A4FA8CF283FA4CF3A2FA60
S2144020908CF3002BC6D0002A04BF04301A4612BA6E
S2144020A0B2FA82F2FDE8024500EBD2007047D1E971
S2144020B0002304F00305C4F100004FEAC50514F000
S2144020C0040F91F840F00CFA05F562EA05021CBFD1
S2144020D063EA050362464FF00004A9E72DE9F04F96
S2144020E0C3B00C460B9192460F930C9003F0D6FD6E
S2144020F003681A931846FFF783FFA38919901906B9
S21440210003D52369002B01F0038000230DF1C80995
S2144021101393159314932793269318931B9309931D
S214402120CDF89490C846169317939AF800305446C4
S214402130E3B1252B02D119E0252B03D014F8013F3B
S214402140002BF9D1A4EB0A0585B1269B279AC8F83F
S21440215000A001332A44072BC8F804502792269340
S2144021607FDC08F10808099B2B4409932378002B51
S2144021707FD000231A468DF8773019460D939B463C
S2144021804FF0FF3063780A9004F1010A0AF1010A21
S214402190A3F12000582800F2C183DFE810F038028F
S2144021A0BF03BF034002BF03BF03BF03BF03BF035A
S2144021B0BF0345020302BF035D006B02BF038602F6
S2144021C09D039D039D039D039D039D039D039D03CA
S2144021D09D03BF03BF03BF03BF03BF03BF03BF03CC
S2144021E0BF03BF03BF0337035703BF035703BF03F2
S2144021F0BF03BF03BF039803BF03BF03AD03BF03C3
S214402200BF03BF03BF03BF035902BF03BF031E0381
S214402210BF03BF03BF03BF03BF03BF03BF03BF0369
S214402220BF03BF03C602DB025703570357038B02A5
S214402230DB02BF03BF039002BF039D02CC01B40282
S2144022400802BF03E101BF037E00BF03BF030D02C8
S2144022500D980F9340420D904BF0040B9AF80030C7
S21440226094E725AA0B990C9804F05AFB40B9C84647
S21440227079E7279B23B10C980B9925AA04F050FBCD
S2144022800B9B9B8913F0400F099B18BF4FF0FF3301
S2144022900993099843B0BDE8F08F1BF0200F1193C7
S2144022A040F0DD810F9A1BF0100F134640F06E850C
S2144022B01BF0400F00F06A85148804320025012385
S2144022C00F9200278DF877700A994A1C00F06582B5
S2144022D02BF08002079254EA050240F064820029FF
S2144022E040F03C84002B40F0D7841BF001030E9353
S2144022F000F0048642AE302306F8413D0A9B0E9A13
S2144023009342B8BF134608930023129317B1089B15
S21440231001330893079B13F00203109302D0089BE7
S21440232002330893079B13F0840540F00E830D9B01
S214402330089AA3EB020BBBF1000F40F30683BBF1F8
S214402340100F279C269A29DD43462146A84610278B
S2144023500C9C0B9D06E0ABF1100BBBF1100F03F18C
S214402360080318DD0132B74826921031072A279114
S21440237083E88100EFDD25AA2946204604F0D0FAFE
S21440238000287FF47DAFABF1100BBBF1100F2799FF
S214402390269A4B46E6DC45460C4698460132A94B03
S2144023A026925C44072A279488E8080800F3988415
S2144023B09DF8777008F1080877B1269B0133013401
S2144023C00DF177010122072B2794269388E8060013
S2144023D000F3DB8308F10808109B6BB1269B0133A2
S2144023E002341EA90222072B2794269388E806006B
S2144023F000F3D68308F10808802D00F015830A9B69
S2144024000E9A9F1A002F36DD102F269B8E4D27DD05
S21440241042462146B0464FF0100B2E460C9C0B9D74
S21440242004E0103F102F02F1080215DD0133103191
S214402430072B2791269382E84008F2DD25AA2946F5
S214402440204604F06DFA00287FF41AAF103F102F94
S2144024502799269B4A46E9DC35460C464646904632
S21440246001333C44072B2794269388E8A00000F3CA
S214402470818308F10808079BDF0500F16882269BE8
S2144024800E99C8F8006001330C44072B2794C8F80F
S2144024900410269300F34D8308F10808079B5B075A
S2144024A03AD50D9B089A9D1A002D35DD102D269B9A
S2144024B020DD10260C9FDDF82CB004E0103D102DDA
S2144024C008F1080816DD01335E4A26931034072BC0
S2144024D0279488E84400F1DD25AA5946384604F09A
S2144024E01FFA00287FF4CCAE103D102D279C269B6B
S2144024F0C846E8DC0133534A26932C44072B2794DE
S21440250088E8240008DD25AA0B990C9804F008FA00
S21440251000287FF4B5AE279C099B0D9A08998A42FD
S214402520ACBF9B185B180993002C40F00D8300232A
S2144025302693C846F9E511931BF0200340F0E3814B
S2144025401BF0100240F02E841BF0400300F02A845B
S2144025500F9913460A4604320C880F920025B0E6BF
S2144025600F9A1193166800248DF87740151D002E9B
S21440257000F0A7860A9A531C00F00986214630468A
S21440258003F036FC002800F0E186831B0E930A9485
S2144025900F95CDF81CB023EAE373089312949DF888
S2144025A07770B3E69AF8003001222B21EEE54BF027
S2144025B0200B9AF80030E9E51193002A40F0958701
S2144025C0224B18931BF0200F40F011810F9A1BF0FE
S2144025D0100F134640F0E1831BF0400F00F0DD8300
S2144025E0043314880F9300251BF0010F00F00C8174
S2144025F054EA050300F0088130239DF844208DF806
S21440260078308DF879204BF0020B022359E69AF881
S214402610003000297FF4BAAD01222021B6E54BF008
S214402620010B9AF80030B1E50F9C23680D931846CD
S2144026300028234603F10403FFF60AAE0F939AF8E8
S2144026400030A3E5547D4000647D4000347D40006A
S2144026504BF0100B1BF0200F11933FF423AE0F9D51
S214402660073525F0070303F10802D3E900450F922A
S214402670012326E69AF800302A2B0AF1010400F0DE
S2144026802787A3F130000928A24600F2AD86002332
S2144026901C461AF8013B04EB840400EB4404A3F107
S2144026A030000928F5D90A9472E54BF0800B9AF869
S2144026B000306BE54BF0400B9AF8003066E59AF830
S2144026C000306C2B03BF9AF801304BF0200B0AF118
S2144026D0010A4BF0100B59E5002A40F011871BF019
S2144026E0200F40F0F9841BF0100F40F0AC841BF034
S2144026F0400F00F0A8840F9A136804320F92BDF87A
S21440270024201A8011E50F99B34B0C681893302299
S214402710782304318DF8793011934BF0020B0F91EA
S21440272000258DF878200223CBE50F9911930A688F
S2144027308DF8A02000230A461F468DF877300432D5
S21440274001230893CDF81CB00A9712970F920E9368
S21440275028AEDFE51193002A40F0EA861BF0200FF2
S2144027605DD11BF0100F40F008831BF0400F00F0C7
S21440277004830F99B1F900400431E51722462B46F1
S2144027800F91002A73F1000358DB0A999DF8777081
S2144027904A1C4FF001037FF49BAD54EA050200F05B
S2144027A0DF81CDF81CB0012B00F07B82022B40F07D
S2144027B0068218984E46230904F00F0143EA057333
S2144027C02A091C461546435C06F8013D54EA0503B3
S2144027D0F1D1A9EB06030E9390E51193002A40F041
S2144027E0A3867E4B18931BF0200F3FF4EFAE0F9D51
S2144027F0073525F0070303F108021BF0010F0F927F
S214402800D3E900457FF4F4AE02235AE51193002A3B
S21440281040F086864BF0100B1BF0200FA1D00F9D8A
S214402820073525F00705D5E90023002A05F10801FC
S2144028301D4673F100030F911446A6DA2D27644215
S21440284065EB45058DF8777001233DE51193002A29
S21440285040F062860F9D073525F0070303F1080216
S2144028600F921A6815925B681493149B159D23F07B
S2144028700044284621464FF0FF32594B04F01EFFD5
S214402880002840F04A83284621464FF0FF32544BFA
S21440289004F0F6FE002840F0408315A80DC81499B1
S2144028A004F0E4FE002840F030859DF877704D4EE9
S2144028B04D4B2BF080000790119803220021089280
S2144028C00A914728D8BF1E460E9212911EE54BF03D
S2144028D0080B9AF8003059E4A3F1300000231C4658
S2144028E01AF8013B04EB840400EB4404A3F13000E7
S2144028F00928F5D90D944BE44BF0100B11931BF0BF
S21440290020033FF41DAE0F9D073525F0070303F166
S2144029100802D3E900450F920023D2E41193002A1F
S21440292040F0E785119A002A3FF4A3AC002301212A
S2144029301F4608918DF8A020CDF81CB08DF8773052
S2144029400A9312930E9128AEE4E4279C34E5119B3B
S214402950652B40F3A78015A80DC8149904F07CFE9B
S214402960002800F05081269B204AC8F800200133FA
S21440297001340122072B27942693C8F8042000F33D
S2144029806A8308F108081F9B139A279C934203DB2F
S214402990079BDD077FF582AD269B19991A9AC8F8E2
S2144029A0002001330C44072BC8F8041027942693C4
S2144029B000F39E8308F10808139B5E1E002E7FF7E7
S2144029C06DAD102E269B0A4D40F3F581224610270A
S2144029D0DDF830B00B9C13E0347D4000207D400095
S2144029E0FFFFEF7F147D4000107D4000507D40008B
S2144029F0647D400008F10808103E102E40F3DA814E
S214402A0001331032072B2792269388E8A000F1DD89
S214402A1025AA2146584603F083FF00287FF430ACB1
S214402A20279A269BC846E7E70D9B089A9F1A002FD1
S214402A307FF7E5AC102F269BB64D27DD4246214654
S214402A40B0464FF0100B2E460C9C0B9D04E0103FFA
S214402A50102F02F1080215DD01331031072B2791A4
S214402A60269382E84008F2DD25AA2946204603F050
S214402A7057FF00287FF404AC103F102F2799269B61
S214402A804A46E9DC35460C464646904601333C44C9
S214402A90072B2794269388E8A00000F3328208F19B
S214402AA00808ACE4139B269F012B40F3FE810137B8
S214402AB001340123072F27942697C8F80060C8F8EA
S214402AC0043000F3038208F10808199A1A9BC8F8E4
S214402AD0003001371444072F27942697C8F804205F
S214402AE000F3008208F1080815A80DC8149904F0F0
S214402AF0B3FD139B002840F00181013B01370136AE
S214402B001C44072F26972794C8F80060C8F804305E
S214402B1000F3278108F108081B9AC8F804200137FB
S214402B20144421AB072F27942697C8F800307FF728
S214402B30B3AC25AA0B990C9803F0F2FE00287FF45C
S214402B409FAB279CC846A9E425AA0B990C9803F08E
S214402B50E7FE00283FF4EBACFFF792BBDDF81CB075
S214402B60012B00F03481022B25D1CDF81CB0002477
S214402B7000251EE625AA0B990C9803F0D1FE0028E6
S214402B807FF47EAB279CC84675E425AA0B990C9823
S214402B9003F0C6FE00287FF473AB279CC8461BE4B0
S214402BA025AA0B990C9803F0BBFE00287FF468AB6F
S214402BB0279CC84620E4CDF81CB000240025494692
S214402BC000E03146E20842EA4572E80804F00703AE
S214402BD005461446303354EA050201F8013C01F13B
S214402BE0FF36EED1079AD2077FF5F3AD302B3FF490
S214402BF0F0AD0239302306F8013CA9EB01030E93F1
S214402C000E46FFF77BBB1F99002940F32E82129B8E
S214402C10139A9342A8BF1346002B1F460DDD269BF2
S214402C20C8F8006001333C44072B2794C8F804706A
S214402C30269300F31F8308F10808129B002FA8BFB5
S214402C40DB1B002B1F4640F3D680102F269B314DB2
S214402C5040F3ED8142462146B0464FF0100B2E46DB
S214402C600C9C0B9D04E00832103F102F40F3DB8194
S214402C7001331031072B2791269382E84008F2DD76
S214402C8025AA2946204603F04BFE00287FF4F8AAE2
S214402C902799269B4A46E7E70A9B0E934E46FFF740
S214402CA02DBB002D08BF0A2CC0F08F804E46204614
S214402CB029460A22002304F03FFD303206F8012D53
S214402CC02046294600230A2204F036FD04460D46D7
S214402CD054EA0503EBD1A9EB06030E93FFF70EBBB0
S214402CE025AA0B990C9803F01BFE00287FF4C8AA6F
S214402CF09DF87770279CC846FFF75EBB5E1E002E89
S214402D007FF70AAF102E034D22DD22464FF0100B00
S214402D100C9C06E0647D4000103E102E08F108082A
S214402D2015DD01371032072F2792269788E82008AE
S214402D30F2DD25AA0B99204603F0F2FD00287FF429
S214402D409FAA103E102E279A269FC846E9DC1446B6
S214402D5001373444072F2794269788E860007FF78A
S214402D60D9AE25AA0B990C9803F0DAFD00287FF41B
S214402D7087AA279C269FC846CEE60F9A1468134615
S214402D800433E5170F9322462B46FAE404321C68B8
S214402D900F9201230025FFF794BA1C6804330F9363
S214402DA0002521E40F990A4604320C680F9200254C
S214402DB0FFF787BA144601333444072B27942693EB
S214402DC088E860007FF768ABB3E6DDF81CB0CDF866
S214402DD01CB042AE3034012306F8414D0E93FFF747
S214402DE08DBA25AA0B990C9803F09AFD00287FF41B
S214402DF047AA279CC8461F9A139B9A4244DB079BC8
S214402E00D90741D4139B12989A1A1D1A9542A8BF07
S214402E101546002D0EDD2699C8F8045001310644AB
S214402E202C440729C8F800602794269100F33B827B
S214402E3008F10808002DACBF561B1646002E7FF73B
S214402E402DAB102E269BB04DB5DD22461027DDF863
S214402E5030B00B9C04E008F10808103E102EA9DDA7
S214402E6001331032072B2792269388E8A000F2DD24
S214402E7025AA2146584603F053FD00287FF400AAB1
S214402E80279A269BC846E8E7269B19981A99C8F8B9
S214402E90001001330444072B2794C8F804002693F7
S214402EA000F3F58108F10808ACE7079BDA073FF521
S214402EB0FEAD013701340123072F27942697C8F823
S214402EC00060C8F804307FF725AE4AE725AA0B997C
S214402ED00C9803F025FD00287FF4D2A9279C269F56
S214402EE0C846F2E525AA0B990C9803F019FD002870
S214402EF07FF4C6A9279C269FC846F5E54E46FFF7B1
S214402F00FDB925AA0B990C9803F00AFD00287FF41A
S214402F10B7A9279CC846FFF772BA159C224620469A
S214402F20149C2346214604F0C9FB002840F08682C4
S214402F300A9B0133119B23F020030E9300F0E2819D
S214402F40472B00F01E814BF480730793149B1F1E83
S214402F50159B0893BBBF3B4603F1004700232D2338
S214402F601093119B662B00F0BB81462B00F0DF8050
S214402F700E9B089A452B0CBF0A9B0A9D23A820A9A6
S214402F8008BF5D1C049003911FA802213B46029097
S214402F90019500910C9801F0A3FA119B672B064609
S214402FA040F0E0811BF0010F00F046827419169A3B
S214402FB00898179B394604F04FFB002840F065817F
S214402FC0239BA34206D230215A1C23921970239B7E
S214402FD09C42F9D89B1B13930E9B472B00F0E9802D
S214402FE0119B652B40F3CD81119B662B1F9B129343
S214402FF000F09E81139B129A1946914200F38A81F3
S2144030001BF0010F40F0138222EAE2730893672315
S2144030100E921193109B002B40F0C4800A939DF8AB
S2144030207770FFF773B935460C46464690460133EF
S2144030303C44072B2794269388E8A0003FF7D1AE60
S21440304008F10808D7E60F9A136804320F92099AD7
S2144030501A60FFF76AB825AA0B990C9803F060FC33
S21440306000287FF40DA9C8468DE4269B274AC8F859
S2144030700020013301340122072B27942693C8F8F9
S214403080042072DC08F1080829B9139B1BB9079B7A
S214403090D8077FF503AA269B19981A9AC8F80020E5
S2144030A0013302462244072B2792C8F80400269391
S2144030B000F38D8108F108080029C0F26581139954
S2144030C0C8F8006001338C18072B27942693C8F85D
S2144030D004107FF7E1A92CE50F9A09991368CD17DC
S2144030E00846043229460F92C3E90001FFF71DB88F
S2144030F025AA0B990C9803F013FC00287FF4C0A86F
S214403100279CC84658E400BF647D4000507D400080
S21440311040210C98FEF798FB0B9A1060106100282F
S21440312000F0F2810B9A40235361FEF7EEBF23A8CE
S21440313020A90A9C049003911FA803210290089A94
S21440314001943B4600910C9801F0CAF92546064684
S214403150119B462B06EB05047FF429AF3378302BC2
S21440316000F078811F9D2C4421E725AA0B990C98E6
S21440317003F0D6FB00287FF483A81F99279CC846F7
S21440318082E70A9B002B08BF01230A93DBE6304602
S2144031900A94FEF735FF0F950E90CDF81CB0034607
S2144031A0FFF7F9B92D2700238DF877700A93FFF7BC
S2144031B0AEB81F9B12931A46033304DB0A9B19468C
S2144031C09142BFF617AF119B023B11939DF84430D6
S2144031D08DF88430129B013B002B1F93BDBF129B82
S2144031E0C3F101032D222B22092B8DF8852040F3B5
S2144031F016810DF193042046AB4D00E0104685FB4A
S2144032000312D917C1EBA20101EB8102A3EB4202E4
S2144032103032092900F8012C0B4600F1FF32EDDC74
S21440322030330238D9B2844202F8011C40F265813C
S2144032300DF18600134601E013F8011B00F8011B50
S214403240A342F9D101339B1A0DF18602134421AAF9
S2144032509B1A139A1B93012A13440E9340F3198129
S2144032600E9B199A13440E9323EAE37308930023A4
S2144032701293CFE625AA0B990C9803F051FB002831
S2144032807EF4FEAF279CC846D7E42346A2E625AA8E
S2144032900B990C9803F044FB00287EF4F1AF1F9A7C
S2144032A0279CC846AEE525AA0B990C9803F038FB38
S2144032B000287EF4E5AF1F9A139B279C9A1AC846AF
S2144032C0B8E50A9B1296062B28BF06230A96374671
S2144032D008930F95CDF81CB00E93744EFFF716B8B2
S2144032E023A820A90A9D049003911FA803210290B9
S2144032F0089A01953B4600910C9801F0F1F8064675
S21440330044192BE706230A931DE62D278DF8777080
S214403310FFF7CDBA199A139B1344129A0E93002ABC
S21440332040F3B08023EAE37308936723119371E672
S214403330002B40F3C3800A9A002A40F099801BF085
S214403340010F40F0958008930E9363E60A9B08931E
S2144033500E930A900F95CDF81CB012909DF877709A
S214403360FEF7D4BF119B472B7FF420AE1BF0010F16
S2144033707FF4EEAE239B9B1B13930E9B472B3FF491
S21440338018AF1F9B129321E74F421031484D2FDA5A
S2144033901024DDF830B004E008F10808103F102F84
S2144033A026DD01331032072B27922693C8F80050AB
S2144033B0C8F80440F0DD25AA0B99584603F0B0FA49
S2144033C000287EF45DAF279A269BC846E6E725AAE6
S2144033D00B990C9803F0A4FA00287EF451AF1F997D
S2144033E0279A269BC84667E600200A90FEF7D0BE7E
S2144033F001333A44072B88E8A0002792269308F129
S21440340008087FF75CAE25AA0B990C9803F088FA5B
S21440341000287EF435AF279A269BC8464FE63033C1
S21440342030228DF887308DF8862022AB0FE7129B2E
S214403430199A13440E9375E7239BCBE5149B1D4EB8
S214403440002BB6BF2D279DF877708DF877701A4BF6
S214403450FFF72FBA169A0898179B394604F0FCF8DF
S21440346000287FF47FAEC5F101051F952C449EE5EC
S214403470129B199A13440A9A1A4422EAE2730E924D
S2144034800893C7E5129B0E9AC3F101031A441346EC
S214403490D0E71BF0010312937FF4E2AE0E9B23EAC3
S2144034A0E3730893B6E500BF67666666487D4000EE
S2144034B0647D40001C7D4000187D40000A9B13B987
S2144034C01BF0010F02D0199B0133D4E701233AE7E2
S2144034D00F9D9AF80130286840EAE0700A90284626
S2144034E00430A2460F90FEF751BE8DF87710FFF7D6
S2144034F067B88DF87710FFF715BA0DF18603A6E684
S2144035008DF87710FFF7EBB80C9A0C2313604FF04A
S214403510FF330993FEF7BDBE8DF87710FFF79AB9D3
S2144035208DF87710FFF776B98DF87710FFF759B911
S2144035308DF87710FFF712B92DE9F84F4B6E9C04C3
S21440354093462FD59368126853B30E46074602F14A
S214403550080919E920045FEA9A0817D0043D0024B8
S21440356001E0A04510D0324655F8041F384602F018
S2144035707BF8431C04F10104F3D10023CBF8083058
S214403580CBF80430BDE8F88FDBF808302AF0030AA1
S214403590A3EB0A03CBF8083009F10809002BD8D171
S2144035A00020EAE702F0CAF90023CBF80830CBF84F
S2144035B00430BDE8F88F00BF2DE9F04FADB01D4692
S2144035C08B4690460793069018B1836B002B00F00D
S2144035D0F380DBF86430BBF90C00DF0781B202D41D
S2144035E08E0540F1FC808C040AD4DBF8643040F44D
S2144035F0005123F40053ABF80C10CBF8643089B27A
S214403600080740F1B380DBF81030002B00F0AE80A6
S21440361001F01A030A2B00F0B58000230DF1700963
S2144036200B93119310930393CDF83C90CA46CDF874
S21440363010B098F800304446FBB1252B02D11CE070
S214403640252B03D014F8013F002BF9D1A4EB080535
S2144036509DB1109B119ACAF8008001332A44072B6B
S214403660CAF80450119210937ADD002A40F0B084D4
S214403670039B10922B44CA4603932378002B00F0FA
S214403680E08300204FF000038DF8373004F1010846
S21440369062780546064603464FF0FF3408F10108B7
S2144036A0A2F12001582900F2DE82DFE811F0210263
S2144036B0DC02DC022902DC02DC02DC02DC02DC0288
S2144036C0DC0289029502DC02A200BD02DC029F01F8
S2144036D0A401A401A401A401A401A401A401A4017D
S2144036E0A401DC02DC02DC02DC02DC02DC02DC02DE
S2144036F0DC02DC02DC02B201DC02DC02DC02DC02C0
S214403700DC02DC02DC02DC02DC02DC029701DC02CA
S214403710DC02DC02DC02DC029B01DC02DC0253023F
S214403720DC02DC02DC02DC02DC02DC02DC02DC0264
S214403730DC02DC025A021B02DC02DC02DC026E0205
S2144037401B02DC02DC027302DC02F5018201090284
S214403750D702DC029A02DC02A700DC02DC022E0260
S2144037600AF1080A039B2B44039386E759460698BA
S21440377000F0ACFD18BBBBF80C1001F01A030A2B86
S2144037807FF44BAFBBF90E30002BFFF646AFDBF8AD
S2144037906430DB0705D48F0503D4DBF8580002F00D
S2144037A091FA2B4642465946069800F04DFD039046
S2144037B003982DB0BDE8F08F01F0B4FE09E7DBF8C2
S2144037C06430D90704D4BBF80C309A0540F1AA847B
S2144037D04FF0FF33039303982DB0BDE8F08FDBF82E
S2144037E0580002F06DFABBF90C0081B2FBE6764257
S2144037F0079243F0040398F800204FE708969E0689
S21440380000F150840799DD060A4600F1EF8358061A
S21440381040F1EC830E8804310027012207914FF0D7
S21440382000018DF837100025611C00F0168123F04A
S2144038308001029156EA070140F01481002C40F0C6
S2144038405C83002A40F0B78313F00103059300F031
S21440385057840DF1B00B30230BF8413D059BA34236
S214403860B8BF234601930DB101330193029B13F079
S2144038700203099302D0019B02330193029B13F08B
S21440388084030A9340F01782089B019A9D1A002DE4
S21440389040F31182102D40F39084109B119AC44E31
S2144038A0D6461027A2461946069C07E001F1020CB0
S2144038B00EF1080E0146103D102D11DD481C103249
S2144038C0072811928EE8C0001090EFDD002A40F0E5
S2144038D0E481103D102D11464FF0010CCE46EDDC34
S2144038E054466146F2462A4407291192CAF80060B7
S2144038F0CAF80450109100F3EC829DF837500AF154
S214403900080A481C002D40F0DE81099B002B00F081
S214403910F88102320EA902230728119210908AE8F5
S2144039200A0040F3EA81002A40F08C830A9B802BF1
S2144039304FF001001146CA4640F0E781089B019DC2
S2144039405E1B002E40F3E181102E9A4D40F35084CA
S214403950D4461027A246069C07E001F1020E0CF161
S214403960080C0146103E102E11DD481C1032072868
S21440397011928CE8A0001090EFDD002A40F09D8266
S214403980103E102E4FF0010E1146CC46EDDC54464C
S214403990E2463244BEF1070F11928AE86000CDF845
S2144039A040E000F369830AF1080A0EF1010071460F
S2144039B0ABE1089613F0200240F08C8313F0100120
S2144039C040F01A8313F0400200F0168307980A4628
S2144039D00146043106880791002720E7089643F001
S2144039E01003E7E7089643F0100308E743F0800328
S2144039F098F8002052E6A2F13001002618F8012B74
S214403A0006EB860601EB4606A2F130010929F5D9F8
S214403A1046E60896002840F0088443F010039E06C9
S214403A2000F14C83DD0600F1F382580640F1F08247
S214403A30079DB5F900602A46F717043230463946E6
S214403A400792002871F10002C0F25D83611C9DF868
S214403A5037504FF001027FF4EAAE56EA070100F015
S214403A604D820293012A00F08C82022A40F05C824A
S214403A700B98CB46330906F00F0143EA07733A0921
S214403A801E461746435C0BF8013D56EA0703F1D144
S214403A90A9EB0B030593E1E6002840F0C0839906A6
S214403AA000F16783DA0600F1F1805B0640F1EE80B4
S214403AB0079A136804320792BDF80C201A80B8E5BE
S214403AC007983D4A08960B920668782230210430C3
S214403AD08DF8392043F00203079000278DF8381000
S214403AE002229CE60896002899D08DF8375096E733
S214403AF098F80020002D7FF4D1AD01202025CDE59B
S214403B0043F0010398F80020C8E50896002840F0E6
S214403B10938329490B919F0600F1E8820798DE06B9
S214403B20014600F170825D0640F16D8204310688E0
S214403B3007910027D80740F1228256EA070100F095
S214403B401E8230218DF8392043F002038DF838105C
S214403B50022264E60896002840F06B8317490B91D2
S214403B60D9E7079908960A688DF848204FF0000074
S214403B700A468DF8370004320120019007920590DE
S214403B800DF1480B0293002470E643F0400398F88A
S214403B90002083E598F800206C2A03BF98F801209F
S214403BA043F0200308F1010843F0100376E500BF18
S214403BB0747D4000847D4000347D4000207D400080
S214403BC007990E680A46002E02F10402FFF60FAE71
S214403BD0079298F8002061E598F8002001202B25F0
S214403BE05CE507990896D1F800B04FF000028DF8D2
S214403BF037200E1DBBF1000F00F0E582671C00F079
S214403C00C482224600215846019302F0F1F8019BF7
S214403C10002800F0E582A0EB0B020592079602937F
S214403C209DF83750002419E698F800202A2A08F113
S214403C30010700F0E982A2F130010929B8464FF0A9
S214403C4000043FF62DAD18F8012B04EB840401EB7D
S214403C504404A2F130010929F5D921E543F02003B7
S214403C6098F800201AE50896002840F0DB82002AE3
S214403C7000F0E78001218DF848204FF000020191C6
S214403C808DF8372005910DF1480B7BE7079A1368AE
S214403C9004320792039A1A60CBE40FAA049920468E
S214403CA0FFF74AFC002840F039811099119A01F13B
S214403CB0010CCE46FFE51099119A481C9DF83750E6
S214403CC0002D3FF422AE01320DF1370501210728C1
S214403CD011921090CAF80050CAF8041040F30881B8
S214403CE0002A40F0BC81099B002B3FF41FAE0EAB70
S214403CF0022208461C931D92CA4601460AF1080A4B
S214403D0001300A9B802B3FF419AE059BE41A002C29
S214403D102EDD102CB34D1EDDD6461026069FDDF850
S214403D2010A006E0881C0EF1080E1946103C102C18
S214403D3010DD4B1C1032072B11928EE8600010935A
S214403D40F0DD002A65D1103C102C4FF001001146E2
S214403D50CE46EEDCF246224407281192CAF80050BE
S214403D60CAF80440109000F385800AF1080A013032
S214403D700599CAF800B00A4407281192CAF80410F8
S214403D80109040F38280002A40F01881029B1092E7
S214403D90580735D5089B01995C1A002C40F3E780FC
S214403DA0CA46102C40F3188210998F4E069FDDF8B5
S214403DB010B0102506E0881C0AF1080A1946103C87
S214403DC0102C11DD4B1C1032072B1192CAF80060E4
S214403DD0CAF804501093EEDD42BB103C102C4FF056
S214403DE001001146CA46EDDC224407281192CAF863
S214403DF00060CAF80440109051DD002A40F09B81D4
S214403E00039B089A01998A42ACBF9B185B180393A0
S214403E104EE00FAA51463846FFF78EFB002840F08A
S214403E203F811099119A481CCE467FE70FAA594603
S214403E303846FFF781FB60B91099119A481CCA466C
S214403E40BDE7119BDDF810B0002B40F0D481002375
S214403E501093DBF8643013F0010FBBF80C3002D13E
S214403E609A0540F1DE805B063FF5B2AC03982DB074
S214403E70BDE8F08F002A40F00681059A1D92012386
S214403E801192CDF870B01093CA460AF1080A029B08
S214403E90590704D5089B01995C1A002C81DC039BCA
S214403EA0089901988142ACBF5B181B18039372BBFC
S214403EB000231093CA46FFF7BCBB0FAA04992046BE
S214403EC0FFF73AFB50BB1099119A01F1010ECC4610
S214403ED048E5002A40F040819DF83710002900F060
S214403EE01B8101220DF1370110461D921C91CA46D6
S214403EF001460AF1080A013007E5029B012A00F054
S214403F009880022A0DD1029300260027B0E50FAA1A
S214403F1004990698FFF710FB0028C9D0DDF810B0CA
S214403F2097E7029300260027494600E05946F208E4
S214403F3042EA4772F80806F007030746164630334B
S214403F4056EA070201F8013C01F1FF3BEED1029A26
S214403F50D6077FF59DAD302B3FF49AAD023930231E
S214403F600BF8013CA9EB010305938B4676E4039BD3
S214403F70089A8A42ACBF9B185B18039398E70222C4
S214403F804DE4002F08BF0A2E52D3CB463046394662
S214403F900A22002303F0D0FB30320BF8012D3046C6
S214403FA0394600230A2203F0C7FB06460F4656EA68
S214403FB00703EBD16CE50594CB464FE40FAA049972
S214403FC00698FFF7B9FA0028A8D1119ACA465EE7C4
S214403FD00FAA04990698FFF7AFFA00289ED1CA4662
S214403FE0FFF7C0BB847D4000747D400004311668F6
S214403FF007910122002712E407980146043106681B
S214404000079100270BE40E6804310791002791E5DD
S21440401007990E680A46F717043207923046394623
S2144040200FE5DBF8580001F04DFEBBF80C301AE700
S214404030029B02930DF1B00B303601230BF8416D15
S21440404005930BE40FAA04990698FFF775FA002823
S2144040507FF464AF1099119A481CCA4651E60FAADD
S21440406004990698FFF768FA00287FF457AF10992E
S214404070119A481CCA4648E4002A40F09180012024
S2144040801146CA4641E60FAA04990698FFF754FA25
S21440409000287FF443AF1098119A0130CA4667E66D
S2144040A0D346D6E6079E073626F0070202F10801F9
S2144040B0D2E9006707910122FFF7B1BB079E07369A
S2144040C026F00706D6E9000106F1080207920646E2
S2144040D00F46B6E4079E073626F0070202F10801AF
S2144040E0D2E9006707910022FFF799BB079E073683
S2144040F026F0070101F108000790D1E9006719E5AD
S214404100CB46FFF7ABBB2D25764267EB47078DF8CE
S21440411037500122FFF788BB099BB3B911460120EF
S214404120CA46F2E5DBF8580001F0CCFD4FF0FF330D
S2144041300393FFF750BB0FAA04990698FFF7FCF9C4
S21440414000287FF4EBAE119AA9E60EAB02221C9330
S2144041501D920120CA46D0E50FAA04990698FFF79B
S214404160EBF900287FF4DAAE1099119A481CCA463B
S214404170A4E5079A03991368CD17084604322946E2
S2144041800792C3E90001FFF754BA584607960293D0
S214404190FDF736FF002405909DF83750FFF75EBBCD
S2144041A00FAA04990698FFF7C7F900287FF4B6AE21
S2144041B01099119A481CCA46A7E51099119A204EA4
S2144041C00131FFF790BB062C28BF062405940796BE
S2144041D00194DFF870B0D5E41098194E013003E62C
S2144041E005949DF83750079602930446FFF736BB72
S2144041F08646FFF7CEBB06980FAA5946FFF79CF9AE
S21440420000283FF424AE24E6079998F801200C686D
S214404210043144EAE474B8460791FFF73FBA8DF894
S21440422037503CE48DF8375021E58DF83750FFF78E
S214404230F4BB8DF8375091E48DF8375069E400BFF1
S214404240747D4000487D40002DE9F0410C46ADF5B8
S2144042508D6D8989666EE589199621F002010646BC
S214404260E069ADF80C1017464FF48061626AADF80D
S2144042700E5098461AAD0023079016A8099206934A
S214404280009504950291059101F016FD43463A4685
S21440429069463046FFF790F9051E07DB304669460B
S2144042A001F0E8F8002818BF4FF0FF35BDF80C3095
S2144042B05B0603D5A38943F04003A381169801F01B
S2144042C0FDFC28460DF58D6DBDE8F08138B5304BC8
S2144042D01B6805460C4613B19A6B002A38D0B4F9D1
S2144042E00C2093B218070CD52069A8B113F0010230
S2144042F01ED0636900225B42A361A260F0B1002039
S21440430038BDD9063CD5580726D4206942F0080364
S214404310A3819BB20028E9D103F42072B2F5007F56
S214404320E4D02846214601F0FDFCA3892069DDE75C
S214404330990758BF6269A2600028E0D1B4F90C30F2
S2144043401A06DDD543F04003A3814FF0FF3038BD59
S214404350184601F0E7F8C2E7216B51B104F140037B
S214404360994204D0284601F003FAB4F90C20002301
S214404370236300232069636022F024022060C5E79F
S21440438042F0400209232B604FF0FF30A28138BD37
S21440439024004020024B13B1024800F005B8704795
S2144043A00000000095554000002301461A46184676
S2144043B002F0DABB02690B69934200F38D802DE967
S2144043C0F04F03F1FF3801F1140700F1140B57F8D2
S2144043D028205BF828304FEA880483B00132B3FBCC
S2144043E0F2F90BEB0403009407EB040A0193B9F1CE
S2144043F0000F39D000252E46BC46DE465CF8044BFE
S214404400DEF80030A2B209FB0255220C2C0C09FB48
S2144044100242ADB2751B96B2C6EB134615FA83F34D
S21440442006EB23469BB243EA0643E2454FEA124573
S2144044304EF8043B4FEA2646E0D2009B5BF803303A
S21440444093B9019C231F9B450CD254F8043C4BB9AE
S214404450A4F1080302E01A68043B1AB99B4508F128
S214404460FF38F8D3C0F81080044601F073FF0028E8
S2144044702EDB09F101095D46002357F8041B286826
S2144044808AB29A1A0B0C12FA80F2C3EB104303EB73
S214404490224392B242EA0342BA4545F8042B4FEA19
S2144044A02343EAD25BF828200BEB880382B91A1F15
S2144044B093450BD253F8042C42B9083B02E01A68E5
S2144044C0043B1AB99B4508F1FF38F8D3C4F810806E
S2144044D0484603B0BDE8F08F00207047000000005B
S2144044E02DE9F04F016C9BB00446279E92469B46B2
S2144044F041B1426C4A60012393408B6001F052FD0B
S21440450000232364BBF1000F5D4635DB0023336098
S2144045109D4BAB4315D0504659460022002303F02E
S2144045209BF8804600282DD0269A01231360289BAE
S214404530002B00F0BD809548186001381BB0BDE8E0
S214404540F08F269A42F20F731360BAF1000F0DD126
S214404550C5F3130555B9289B8D48002BEED000F1C6
S2144045600803289A13601BB0BDE8F08F289B894843
S214404570002BE3D0C31CF4E701232BF00045336047
S214404580AB46C5E718AA19AB0192009352465B4664
S214404590204601F07FFF2B0D814671D0CBF31302EE
S2144045A042F07F51189FCDF850805046A3F2FF3618
S2144045B041F440110022784B02F032FC6CA3D3E960
S2144045C0002302F0E1FD6CA3D3E9002302F02AFCAD
S2144045D0CDE90201304602F071FD69A3D3E900231C
S2144045E002F0D2FD02460B46DDE9020102F01AFC5B
S2144045F0CDE9040103F078F8002202900023DDE9BB
S214404600040103F033F8002840F07381029D162D14
S21440461000F25D81614B03EBC503D3E900015246CE
S2144046205B4603F041F8002800F0C5816B1E0293FC
S21440463000230E93BF1B7B1E069300F1548100237C
S2144046400893029B002BC0F24581069A0D931146B3
S2144046501944002306910C93249B092B2AD8052B3A
S21440466040F35B86043B24930025249B023B032BAC
S21440467000F24286DFE813F0D403C902DF03610488
S214404680189F199E3E4406F23243202B40F38E81FB
S214404690C3F1400306F212409D402AFA00F0284338
S2144046A002F0FCFC0123013EA1F1F871149381E76E
S2144046B03B4843E7002161642046259101F04CFCCD
S2144046C04FF0FF330A93259A0F93012304902064FA
S2144046D024920B93199B002BC0F2D980029A0E2A83
S2144046E000F3D5802D4B03EBC203D3E90023CDE97D
S2144046F00823259B002BC0F2BA83DDE908565046B6
S2144047002A463346594602F069FE02F0EDFF8046DF
S21440471002F0D4FC2A46334602F036FD0B460246EB
S2144047205946504602F07CFB049D08F130032B703E
S2144047300A9B012B06460F4605F1010568D000226C
S214404740184B02F021FD0022002306460F4602F0D9
S21440475083FF002840F08880CDF82C904FF0000A68
S214404760DFF840B00C94DDE9088928E0AFF300801C
S21440477061436F63A787D23FB3C8608B288AC63F22
S214404780FB799F501344D33F0000F07F517D40009B
S214404790947D4000A07D40000000F83FE07D400052
S2144047A0507D40000000244002F0EEFC0022002332
S2144047B006460F4602F050FF002840F0C1834246AE
S2144047C04B463046394602F009FE02F08DFF04465D
S2144047D002F074FC42464B4602F0D6FC02460B46BC
S2144047E03046394602F01CFB04F1300E049E05F8B4
S2144047F001EBA5EB060E0A9EB645CDE906015246EC
S2144048005B46D1D1A046DDF82C900C9C06460F4660
S21440481032463B463046394602F004FB06460F46D3
S21440482002460B46DDE9080102F020FF48B9324651
S2144048303B46DDE9080102F00FFFA8B118F0010F72
S21440484012D015F8018C049A6B1E04E09A4200F0D0
S214404850018413F8018DB8F1390F03F10105F5D045
S21440486008F1010883F800804946204601F09AFB8B
S2144048700022029B2A70269A01331360289B002B45
S21440488000F09E8304981D601BB0BDE8F08F0B9A25
S214404890002A3ED0249A012A40F311830A9B0C9AA0
S2144048A05F1EBA42C0F28F83D71B0A9B002BC0F212
S2144048B08B84089D0A9B089A1A440892069A0121FE
S2144048C01A442046069201F007FC064624E00123DF
S2144048D00E93AFE6089A029BD21A5B420C930023D3
S2144048E008920D93B8E6C7F1010308930023069398
S2144048F0A7E6029D284602F0E1FB02460B46DDE9AC
S214404900040102F0A9FE00287FF480AE6B1E0293DD
S2144049107CE60C9F089D0B9E002D0CDD0699002919
S2144049200B4608DDA942089AA8BF2B46D21AED1AB4
S214404930CB1A089206930C9BD3B10B9B002B00F02E
S214404940B782002F10DD31463A46204601F060FC23
S2144049504A4601460646204601F0C8FB4946804680
S214404960204601F01FFBC1460C9BDA1B40F0A1829B
S2144049700121204601F0B0FB0D9B002B80461CDD3C
S21440498001461A46204601F043FC249B012B8046F4
S21440499040F3548200230C93D8F8103008EB83037E
S2144049A0186901F049FBC0F1200010E0C3F1200572
S2144049B00AFA05F074E60E903CE6249B012B40F381
S2144049C0878200230C930D9B0120002BE4D1069A8E
S2144049D0104410F01F0000F0A180C0F12003042B0B
S2144049E040F39E84089BC0F11C0003440893134682
S2144049F0034405440693089B002B05DD49461A46AA
S214404A00204601F055FC8146069B002B05DD4146BD
S214404A101A46204601F04CFC80460E9B002B40F088
S214404A2086800A9B002B40F366820B9B002B00F08F
S214404A309880002D05DD31462A46204601F038FC98
S214404A4006460C9B002B40F0378306960A9B049A3A
S214404A50DDF818B0013BD3180B930AF001030C9312
S214404A601746C24651464846FFF7A4FC314605461F
S214404A70484601F06FFC5A460A905146204601F0DF
S214404A8085FCC268804605F13003002A40F02B8240
S214404A9001464846089301F05DFC41460690204694
S214404AA001F080FA069A089B32B9249921B90C9AEB
S214404AB0002A00F0EF83249A0A990029C0F29F82C8
S214404AC005D1249919B90C99002900F09882002A3A
S214404AD000F306830B9A3B7007F101089742454660
S214404AE000F00C83494600230A22204601F064FA6F
S214404AF05E45814631464FF000034FF00A0220469D
S214404B0000F0EB8101F058FA5946064600230A2287
S214404B10204601F051FA47468346A3E71C20089BEF
S214404B2003440893069B03440544069363E74146C3
S214404B30484601F00FFC0028BFF673AF029F494677
S214404B4000230A222046013F029701F035FA0B9BCC
S214404B508146002B40F0B6830F9B002B40F3BF836B
S214404B600A93DDF810B00A9F5D4602E001F024FA91
S214404B70814641464846FFF71DFC00F1300A05F8DD
S214404B8001ABA5EB0B03BB424FF00A024FF000030C
S214404B9049462046EADB049B0A9A012AACBF9B188A
S214404BA001331D464FF0000B49460122204601F0D6
S214404BB07FFB4146814601F0CDFB002840F33D8215
S214404BC015F8012C04996B1E04E08B4200F0AE8170
S214404BD013F8012D392A03F10105F6D001321A7077
S214404BE04146204601F0DEF9002E3FF43DAEBBF1D3
S214404BF0000F05D0B34503D05946204601F0D2F900
S214404C003146204601F0CEF92EE600230B93029B58
S214404C10259A13440F930133012B1F461E460A93D1
S214404C20B8BF01270021172F61640AD90122042347
S214404C305B0003F114008742114602F10102F7D2ED
S214404C406164204601F088F90E2E049020643FF6F9
S214404C5041AD002D3FF43EAD02990029CDE910ABA1
S214404C6040F30282B84B01F00F020D1103EBC20372
S214404C70E906D3E9006740F1AE81B44B5046594649
S214404C80D3E9082302F0AAFBCDE9120105F00F058F
S214404C904FF0030A8DB1DFF8B482EA0709D53046F3
S214404CA03946D8E9002302F06FFA0AF1010A0646AF
S214404CB00F466D1008F10808EFD13B463246DDE955
S214404CC0120102F08BFB074688460E9B43B100223A
S214404CD09F4B3846414602F0C9FC002840F0868289
S214404CE0504602F0EBF93A46434602F04DFA994BED
S214404CF0002202F097F80A9B0546A1F15076002B59
S214404D0000F03E81029B15930A9B12930B9B002B4F
S214404D1000F0FA81129A8C4B8F4903EBC20353E999
S214404D200223002002F05AFB2A46334602F078F867
S214404D3082468B463846414602F0D6FC054602F08F
S214404D40BDF902460B463846414602F069F8303512
S214404D505FFA85F8049D06460F4685F800800246B1
S214404D600B4650465946013502F09EFC002854D169
S214404D7032463B460020764902F052F802460B4641
S214404D805046594602F090FC002840F07082129A35
S214404D90012A00F01181129B049ACDF848901344E2
S214404DA099460DE000206A4902F03AF852465B46C2
S214404DB002F05CFC002840F058824D4500F0FA8036
S214404DC0504659460022654B02F0DEF90022634BFE
S214404DD082468B463046394602F0D6F90F4606469E
S214404DE002F082FC804602F069F902460B463046E5
S214404DF0394602F015F808F130085FFA88F852464E
S214404E005B4605F8018B06460F4602F02FFC3246FD
S214404E103B460028C6D0DDF84890159B029323E514
S214404E2000230B93259B002B40F3DC801F461E4639
S214404E300F930A93F6E601230B93F3E7BAF1000FBC
S214404E407FF4A8ADCBF31303002B7FF4BAAD2BF061
S214404E5000473F0D3F05002F00F00D82089B0133B1
S214404E600893069B0133069301230C93ABE50A9BFC
S214404E70002B3FF742AC40F021820022384BDDE960
S214404E80080102F081F952465B4602F003FCDDF869
S214404E9028804646002841D0259B049DDB4302934C
S214404EA04146204601F07EF8002E3FF4DDACA7E6F2
S214404EB00C9A4946204601F0ABF9814658E5149ACB
S214404EC0002A00F0878103F233430C9F089DF2E4EA
S214404ED0BAF1000F7FF475ADB4E701F06DF84746C0
S214404EE006468346BEE501462046069301F05AF83C
S214404EF00122069BE0E5249B022B7FF796AD0A9B9A
S214404F00002BC9D141460522204601F055F80146FE
S214404F108046484601F01EFA0028BDDD029A0499F4
S214404F203123013202920B704D1CB9E7029A0132CE
S214404F300292049A3123137052E601230B9366E6DD
S214404F40DDF82C900C9C8FE4E07D4000B87D40005E
S214404F500000F03F00001C400000E03F00002440FE
S214404F6000001440504602F0A9F83A46434602F084
S214404F700BF90022C14B01F055FF0546A1F15076D2
S214404F8041460022BE4B384601F04AFF2A46334689
S214404F9082468B4602F088FB8046002840F010810F
S214404FA02A4606F100435046594602F05FFB18B1C8
S214404FB0464671E7DDF84890DDE910ABFFF78ABB5F
S214404FC00498FFF7BBBA0C9B0D9A0C97FB1A1A4431
S214404FD00D92002769E4DDE910234FF0020ACDE97F
S214404FE0122357E60021012361642046259300F0F2
S214404FF0B3FF259B049020640A930F9329E6002A6A
S214405000D046CDF818B09A4611DD494601222046D2
S21440501001F04EF94146814601F09CF9002840F3E4
S2144050204681BAF1390F00F0068105F1310AB346E0
S21440503087F800A07D1C069ED2E504D11AF0010F29
S21440504001D0BDE5154615F8013C302B05F1FF3281
S214405050F8D0C5E5049930220A70029A15F8018CFA
S21440506001320292FFF7FCBB00F0BB80029B5D4220
S214405070844B05F00F0203EBC203D3E90023DDE9BE
S214405080100102F081F82D110746884600F02C8169
S2144050907D4E4FF0020AEB0709D538464146D6E921
S2144050A0002302F071F80AF1010A074688466D109F
S2144050B006F10806EFD108E67168204600F04CFF7E
S2144050C0336902339A00054606F10C010C30FCF7B2
S2144050D06BFE29460122204601F0EAF80690B5E428
S2144050E0392BCDF818B0D04600F0A58003F1010A60
S2144050F0B34687F800A07D1C069E71E55A46D0460A
S214405100B3469A4616464FE5129B5E4901EBC301ED
S2144051102A46334651E9020102F036F8CDE9160137
S2144051203846414602F0E0FA054601F0C7FF0B4616
S21440513002464146384601F073FE129B0F460499DC
S2144051403035012B0D70064601F1010526D0129B25
S214405150049ADFF83CB1CDF8489013444FF0000A6B
S214405160994652465B463046394602F00DF80F46A1
S214405170064602F0B9FA804601F0A0FF08F1300872
S21440518002460B463046394601F04AFE05F8018B8A
S2144051904D4506460F46E4D1DDF848903B4B00228D
S2144051A0DDE9160101F03EFE32463B4602F05EFA6D
S2144051B0002846D0159B029315F8018CFFF743BB99
S2144051C04FF000084646A9E6089B0A9A9D1A002317
S2144051D0FFF771BB189B0C9F089DC3F13603FFF782
S2144051E06ABBDDE910784FF0020A6EE50A9B002B99
S2144051F03FF4B8AE0F9B002B7FF7DEAE0022244B69
S2144052003846414601F0C0FF074688460AF101008D
S21440521001F054FF3A46434601F0B6FF0022174BD2
S21440522001F000FE029A0F9B1293013A0546A1F147
S214405230507615926AE53922B3463A70069E7D1C32
S214405240C0E4DDE916230020104901F0E9FD3246AE
S2144052503B4602F029FA08B9AEE6154615F8013C79
S214405260302B05F1FF32F8D0D7E5DDF84890159B96
S2144052700293FFF7E8BA0C97FFF7A5BB00001C4067
S21440528000001440E07D4000B87D40000000E03F54
S21440529000002440392BCDF818B0D046DDF828B0B1
S2144052A09A46C8D0BBF1000F3FF7BFAEBFE67FF4CB
S2144052B0BEAE1AF0010F3FF4BAAEB2E64FF00008A9
S2144052C04646E9E5314600230A22204600F074FEB1
S2144052D00F9B002B06460ADD0A93FFF7AABB249BCA
S2144052E0022B23DC0F9B3BE44FF0020AEDE4249BA9
S2144052F0022B1BDC0F9BEFE7002565642946204602
S21440530000F02AFE4FF0FF330A930F9301230490D8
S214405310259520640B93FFF7DDB90125FFF7A5B966
S2144053203FF469ABC0F13C00FFF7F9BB0F9B0A9313
S214405330E5E500BFB1F90C309AB22DE9F0410D46D3
S214405340110780463AD46A6843F40063002AAB816A
S2144053506FDDAC6A002C49D000229BB2D8F80060C2
S214405360C8F8002013F4805267D02A6D5F0705D531
S21440537069682B6B521A0BB1EB6BD21A0023E969A2
S2144053804046A047441C3CD0B5F90C302A692A60F8
S21440539023F400630022AB81DB046A6047D4296BA8
S2144053A0C8F8006011B305F14003994202D0404668
S2144053B000F0DEF900202863BDE8F0812E69AEB12A
S2144053C02C682E6091070CBF6B690023A41BAB6052
S2144053D00AE0234632466F6AE9694046B8470028E5
S2144053E0A4EB0004064404DD002CF2DC0020BDE8FB
S2144053F0F081AB8943F04003AB814FF0FF30BDE80E
S214405400F081D8F800401D2CF3D8194BE340DB431D
S21440541013F00103EDD1B5F90C206B6022F4006364
S2144054202969AB81DA042960B9D5002CB7D1286543
S214405430B5E7EA6B002A8CDCD8E70123E9694046E9
S214405440A047431C024602D0AB89AC6A8EE7D8F828
S2144054500030002BF8D01D2B01D0162B02D1C8F8F7
S2144054600060C3E7AB8943F04003AB81BDE8F08101
S2144054700100402038B50D46044608B1836BBBB1E9
S214405480B5F90C0088B16B6EDB0701D4810517D5E2
S21440549020462946FFF74EFF6B6EDA07044602D4D5
S2144054A0AB899B0507D5204638BD0446204638BD07
S2144054B000F038F8E4E7A86D00F004FC204638BD5C
S2144054C0A86D00F0FDFBE3E7014900F0AFBB00BF6D
S2144054D0B16C400010B5002304468181C281036050
S2144054E043608360436603614361836119460822D3
S2144054F05C30FCF7F3FC07480749084A084B206233
S214405500E4616162A262E36204F15800BDE81040C3
S21440551000F0D2BB99684000BD684000F968400082
S2144055201969400010B50446124800F0C9FBA26B4A
S214405530D2B904F53B731048C4F8E8320321C4F8E6
S214405540E022E063C4F8E41260680421FFF7C2FF7B
S21440555001220921A068FFF7BDFF02221221E06860
S214405560FFF7B8FF0123A3630248BDE8104000F0F0
S214405570A9BB00BF500D4020C9544000014800F070
S2144055809FBB00BF640D4020014800F09BBB00BF9E
S214405590640D402038B50A4C0A4D641BA4100AD04E
S2144055A004F18043013B05EB8305013C55F8043983
S2144055B09847002CF9D1BDE8384002F007BD00BF3F
S2144055C0DC7F4000D87F40002DE9F04782B080461F
S2144055D08946144600F054FB012836D04A4604F16A
S2144055E05C0301A9404601F071FA421C064625D0EC
S2144055F0A8B39DF804E000250DF1040A09E02368ED
S2144056005A1C226083F800E00135B54227D215F8CF
S2144056100AE0A368013B002BA360F0DAA769BB420F
S21440562071462246404602DBBEF10A0FE7D101F042
S214405630F5F9431CE8D102B0BDE8F087A38943F0F2
S2144056404003A38102B0BDE8F08709F1FF33FE2B8B
S214405650C4D85FFA89FE06468DF804E0CBE7484694
S21440566002B0BDE8F08700BF30B5536E13F0010FAF
S214405670B2F90C30144683B005469AB201D1900573
S2144056801CD5900406D4626E43F4005342F4005294
S214405690A381626628462246FFF796FF636EDA07C6
S2144056A0054602D4A3899B0502D5284603B030BDE3
S2144056B0A06D00F007FB284603B030BDA06D0191F9
S2144056C000F0FEFAB4F90C3001999AB2D9E700BF5F
S2144056D0F8B5244F0C460646FCF74EFCBB685D68A2
S2144056E0C4F57E610F3125F00305294421F47F611E
S2144056F021F00F01A1F58054B4F5805F07DB00214F
S2144057003046FCF745FCBB682B44984204D03046F4
S214405710FCF738FC0020F8BD61423046FCF738FC08
S21440572001300DD0104BBA6819682D1B45F00105A5
S2144057303046091B55601960FCF724FC0120F8BD73
S21440574000213046FCF724FCBA68831A0F2BDEDDB6
S214405750064C0549246843F00103001B536008606B
S214405760D5E700BF50044020040D40205808402094
S214405770002944D02DE9F0410D468046FCF7FCFB5D
S21440578055F8047C694927F00103A5F10804E2189E
S2144057908E685068B24220F003005ED0FE0750602C
S2144057A00BD455F8087CE41B01F1080EA568754536
S2144057B03B446DD0E768EF60BD6015186D68ED0737
S2144057C03ED543F001026260E350B3F5007F17D246
S2144057D0DB08581C9A104D6851F83070A7600123BA
S2144057E0934001EBC0022B43083AE2604B6041F81D
S2144057F03040FC604046BDE8F041FCF7C3BB704714
S2144058005A0A042A52D89A0902F13907FF0002F1CF
S2144058103805C819CA59083890424FD0516821F007
S21440582003018B4232D292689042F7D1C368A0609F
S214405830E3609C60C4604046BDE8F041FCF7A2BB14
S21440584095683B4FBD42034440D0D068E86043F083
S214405850010285606260E350B7E7FF07034407D460
S21440586055F8082CA41A1344A068E268C2609060F9
S214405870304A126843F00100934260608C60B9D3AE
S2144058802D4B40461968FFF723FFB3E71046CDE798
S21440589011184968C90744D49168D268CA6003445D
S2144058A043F0010091606060E350A3E7142A16D8E5
S2144058B002F15C07FF0002F15B05AAE7AA1001238C
